:020000040800F2
:1000000018070020B90100085B2A00086F260008C5
:10001000592A000847170008CF2D000800000000EB
:10002000000000000000000000000000312C00086B
:100030002918000800000000A12B0008872C0008E8
:10004000D3010008D3010008D3010008D301000840
:10005000D3010008D3010008D3010008D301000830
:10006000D3010008D3010008D3010008D301000820
:10007000D3010008D3010008D3010008D301000810
:10008000D3010008D3010008D3010008D301000800
:10009000D3010008D3010008D3010008D3010008F0
:1000A000D3010008D3010008D3010008D3010008E0
:1000B000D3010008D3010008D3010008D3010008D0
:1000C000D3010008D3010008D3010008D3010008C0
:1000D000D3010008D3010008D3010008D3010008B0
:1000E000D3010008D3010008D301000800F002F892
:1000F00000F053F80AA090E8000C82448344AAF16F
:100100000107DA4501D100F048F8AFF2090EBAE86C
:100110000F0013F0010F18BFFB1A43F0010318473B
:10012000843D0000A43D0000103A24BF78C878C187
:10013000FAD8520724BF30C830C144BF04680C60ED
:10014000704700000023002400250026103A28BF35
:1001500078C1FBD8520728BF30C148BF0B60704739
:10016000662903F00383652903F00083672903F000
:10017000FD82612903F0FC82642900F0798000206F
:1001800070471FB500F0A2FD04000020002102F01E
:10019000C7FEE0601FBD10B510BD00F097FE114610
:1001A000FFF7EFFF02F05CFE00F0B5FE03B4FFF7CF
:1001B000F2FF03BC00F0F8FE0948804709480047F9
:1001C000FEE7FEE7FEE7FEE7FEE7FEE7FEE7FEE707
:1001D000FEE7FEE704480549054A064B7047000064
:1001E000E92C0008ED000008180100201807002085
:1001F00018030020180300200FB41CB5074B06AAF3
:100200007B4469460090059800F047FD0020694650
:1002100000F056FD1CBC5DF814FB0000BD0A000098
:1002200070B5044685690068C10601D5302600E036
:100230002026C00707D070BDD4E901213046904781
:10024000206A401C20626D1EF6D570BD70B5044654
:1002500085690078C00707D170BDD4E9012120204D
:100260009047206A401C20626D1EF6D570BD0000CC
:100270002DE9F0410646002410687529314616A57F
:1002800010D0AFF30080002802DA404213A507E047
:1002900031688A0701D512A502E0490704D511A5E6
:1002A000012401E0AFF3008000210A2206F12407B7
:1002B00009E0B0FBF2FCB0FBF2F302FB1C003030B3
:1002C00078541846491C0028F3D123462A46304664
:1002D000BDE8F04100F0F6B8000000002D0000007D
:1002E0002B000000200000002DE9F05F8946044645
:1002F0004FF0000ADFF874B1FB44C0F820A020469C
:10030000E1688847002874D0252806D0D4E9012167
:100310009047206A401C2062F1E700265F46204695
:10032000E16888472028054607DB312D05D278197A
:1003300010F8200C08B10643F1E7B00701D526F00C
:100340000406C4F81CA00027C4F818A02A2D09D060
:10035000284602F065FD38B304EB8708303DC8F845
:10036000185019E059F8041B204604EB87029161EC
:10037000E1688847012F054618D1E069002820DA96
:1003800026F020061DE0D8F8180000EB800005EBF1
:1003900040003038C8F818002046E1688847054614
:1003A00002F03EFD0028EED1012F0AD02E2D08D1FB
:1003B0002046E16888477F1C0546022F46F020064C
:1003C000C4DBA069002803DA404246F00106A061C0
:1003D000F00701D026F010066C2D0BD0682D09D047
:1003E0004C2D39D06A2D35D0742D35D07A2D33D09F
:1003F00016E038E0E1682F4620468847B8420546B7
:1004000009D16C2F26D04FF48060E1680643204666
:100410008847054604E06C2F1AD04FF480700643DD
:100420000DB3A5F14100192802D8203546F4006625
:100430004A462946204626604E46FFF791FE80B187
:1004400001280BD0F61D26F0070000F1080956E739
:100450004020E4E78020D8E70020D6E706F1040931
:100460004DE7284652E7206ABDE8F09FDC3A0000DD
:100470004FF0000200B5134694469646203922BF3D
:10048000A0E80C50A0E80C50B1F12001BFF4F7AF88
:10049000090728BFA0E80C5048BF0CC05DF804EB6A
:1004A000890028BF40F8042B08BF704748BF20F8D8
:1004B000022B11F0804F18BF00F8012B70477047D6
:1004C000704770472DE9F0470D469946924604461D
:1004D00000F124080168880604D5E06921F01001C4
:1004E000216000E00120A84201DD471B00E0002759
:1004F000A1697A1902EB0900081AA0612078C006E8
:1005000002D42046FFF78CFE002608E0D4E9012142
:100510001AF806009047206A401C761C20624E455F
:10052000F4DB2078C0060AD52046FFF779FE06E006
:10053000D4E9012130209047206A401C2062381EF7
:10054000A7F10107F4DC07E0D4E9012118F8050060
:100550009047206A401C2062281EA5F10105F3DCAB
:100560002046FFF773FE2078000602D50220BDE882
:10057000F0870120FBE770472DE9FF4F0C461E4630
:100580004FF0FF378BB0D2E90001DDF860800A90B0
:100590008A46C1F30A5505B93D46002108464FF089
:1005A0000000BAF1000F00F4400005DA00EB800013
:1005B0004FF4400101EA50004FEA9059B9F1010FA0
:1005C00000DDB9460A9850EA4A000ED044F61050B1
:1005D000A5F2FF3545432F14B8F1000F1ED0754228
:1005E000291E1EDDC9F100021CE0B8F1010F4FF019
:1005F000000001D0302103E0F24305E02154401C0B
:10060000B042FBDB30460022002121540B99C1F897
:100610000880C1E900200FB0BDE8F08FBD1B6D1C44
:10062000DEE74A4600DA694206A800F0D9FB06ABCD
:1006300093E8070003AB83E8070050460A9900F0EF
:10064000BAFC8DE80700A0F500501F380090039811
:10065000002D0ADD42F21F014A460844002303A987
:100660000390684600F023FF09E0A0F500504A46D9
:100670001F38002303A90390684600F02DFF8DE882
:1006800007000004000C03D04FF0FF30410800E0E9
:100690001046B8F1000F03D00022009215461EE06C
:1006A000751E05D400F016FB303262556D1EF9D56B
:1006B000B3460122084302D000227F1C04E02078C8
:1006C000302801D100227F1E002A099784D01DE026
:1006D000112D07DA00F0FEFA303262556D1C50EA37
:1006E0000102F5D1084302D00098C8B10EE0002104
:1006F000681E05E0235C625C63542254401E491C62
:100700008142F7DBAB46A81B401E0990002004F88D
:100710000B000B98099AC0F80880C0E9002B7AE713
:1007200011264FF0000857E72DE9F04F88460446A0
:10073000D21D22F0070191B0D1E90001CDE90A01F3
:1007400002F04AFB02460B98C00F01D02D2007E0B3
:100750002068810701D52B2002E0202101EAC0009A
:10076000032A099001D0072A05DB034641462046AB
:1007700000F0F6FA0BE12078800601D5E06900E090
:100780000620B8F1650F814606D0B8F1660F18D083
:10079000B8F1670F70D131E00020B9F1110F00906E
:1007A00001DB112301E009F101030AAA01A90CA848
:1007B000FFF7E2FEDDE90C70002609F10105834632
:1007C00047E001204B4600904FF000470AAA01A9DC
:1007D0000CA8FFF7D1FEDDE90DB00C995D460026AF
:1007E00010B909F101000D18B9EB050003D4C0F1EF
:1007F000FF3609F10105A5EB09002BE0B9F1010F66
:1008000001DA4FF001090020B9F1110F00904846BC
:1008100001DD112300E003460AAA01A90CA8FFF795
:10082000ABFEDDE90C704D460026834620780007BC
:100830000AD4AB4500DA5D4601A8012D04DD41195B
:1008400011F8011C302907D04F4502DA17F1040FC7
:1008500004DA012082460FE06D1EEEE7002F02DC75
:10086000ED1B3E4403E0781CA84200DD7D1CB81B54
:1008700000F1010A4FF000472078000703D4AA4591
:1008800001DB4FF0FF3A0021B7F1004F0DF14308B3
:100890008DF8431024D002202B23002F01DA7F4251
:1008A0002D230A21021EA0F1010000DC5FB197FB9D
:1008B000F1FC97FBF1F201FB1C7C17460CF1300CAC
:1008C00008F801CDEEE7A8F10100037021880905C1
:1008D00001D5452100E06521A0F1010800F8011CC7
:1008E00009980FA9A1EB0807FF1D00B101204119CC
:1008F00001EBEA70A1693844081A401EA061207813
:10090000C00602D42046FFF78BFC099828B1D4E931
:1009100001219047206A401C20622078C00622D521
:100920002046FFF77DFC1EE0002E04DBB34502DD10
:1009300001A8805D00E03020D4E901219047206AC1
:10094000401C2062761CAAF101005FEA000A0AD16D
:1009500000F0BCF9C0680168405CD4E9012190470F
:10096000206A401C2062281EA5F10105DCDC07E09E
:10097000D4E9012118F8010B9047206A401C20623D
:10098000381EA7F10107F3DC2046FFF75FFC0320C8
:1009900011B041E62DE9F04F04460D46D21D22F07C
:1009A000070089B0D0E900974846394602F014FAAA
:1009B0000246F80F01D02D2307E02068810701D5FA
:1009C0002B2302E0202101EAC0038DF820300BB177
:1009D000012000E00020032A824601D0072A04DB20
:1009E0002946204600F0BCF93FE12078800601D47A
:1009F0000D2500E0E569C7F30A560D2D49DA0021FF
:100A00004FEA175B08464FF00000002F00F440004B
:100A100007DA00EB80004FF4400100EBD07001EAF0
:100A200060008115012901DD4FF0FF3100224FEAFE
:100A3000850CBCF1180F06D31346ACF118004FF02B
:100A40008052C24003E04FF4801323FA0CF30CF100
:100A50000C0CBCF1200F04D3ACF1200C09FA0CF003
:100A600001E007FA0CF000294FF0004801DD18B949
:100A70000FE00ED140450CD319EB02095F4121B9BB
:100A8000404502D19F4329EA0209BBEB175F00D022
:100A9000761C2088000502D57B48784402E07A481D
:100AA0007844193808AA302302F80A30037C0AF186
:100AB0000101002E0AF1020A53546A4602DC4FF08B
:100AC000300101E04FF031014FF001088DF80010C6
:100AD00002D0A6F2FF3603E059EA470100D06B4E80
:100AE000002D02DC2178090704D54FF002082E21E1
:100AF0008DF80110C44600210BE0C7F303433F010A
:100B0000C35C491C6D1E02F80830052908F1010874
:100B100001DA002DF1DC00210CE000EB1973491C17
:100B20001B786D1E082902F808304FEA091908F1F0
:100B3000010801DA002DF0DC21688B0602D516E0F1
:100B4000A8F10108E04505DD02EB080313F8013CBC
:100B5000302BF5D0B8F1000F09DD02EB080313F8D4
:100B6000013C2E2B03D1090701D4A8F10108002D67
:100B700005DD3E2102F808106D1E08F10108407CD9
:100B8000002E02F8080008F1010804DA2D20764250
:100B900002F8080002E02B2002F808000A214FF4B6
:100BA0007A70864208F101080BDB96FBF0F33033D4
:100BB00002F8083096FBF0F308F1010800FB136619
:100BC00001E0642E0CDB642096FBF0F3303302F876
:100BD000083096FBF0F308F1010800FB136601E012
:100BE0000A2E06DB96FBF1F0303002F8080008F11F
:100BF000010896FBF1F001FB1060303002F80800AC
:100C0000A16908F1010808EB050202EB0A00081AC5
:100C1000A0612078C00602D42046FFF701FB216ABC
:100C200008AE01EB0A00206204E0D4E9012116F8C5
:100C3000010B9047BAF1010AF7D22078C00602D51D
:100C40002046FFF7EDFA6E4609E016F8010B3E2844
:100C50000FD0D4E901219047206A401C2062B8F1EE
:100C60000108F2D22046FFF7F1FA09B00320BDE8EF
:100C7000F08F206A2844206203E0D4E9012130206B
:100C800090476D1EEBD3F8E75E33000002FCFFFFD8
:100C900001694A1C02610878704700B58FB0CDE940
:100CA00001310021059105497944CDE90310114630
:100CB0006846FFF719FB0FB000BD0000E5FFFFFF1E
:100CC0000A6802F8010B0A6070470000004870478C
:100CD000D400002030B5B0F10A024FEA900E71F155
:100CE00000034EEA817EB0EB0E0061EB91014FEA0A
:100CF000101E4EEA017E10EB0E0041EB11114FEA7F
:100D0000102E4EEA016E10EB0E0041EB11214FEA5E
:100D1000104E4EEA014E10EB0E0041EB114140180F
:100D200041F100014FEAD00040EA41704FEAD101A1
:100D300010EB80054FEA810444EA907444EB01040F
:100D40006D1944EB0404521BA3414FF0000348BF4C
:100D50000A3200D530BD401C41F1000130BD000019
:100D60002DE9F0411F46044603260168072A01F4D5
:100D7000006004DB08B116A505E016A503E008B184
:100D800015A500E015A521F010002060A069C01E87
:100D9000A0610FB1401EA0612046FFF741FA4FB19C
:100DA000D4E9012138469047206A401C2062C01CCB
:100DB000206206E0206AFAE7D4E9012115F8010B68
:100DC0009047761EF8D22046FFF740FABDE8F08142
:100DD0004E414E006E616E00494E4600696E6600DF
:100DE0002DE9F047814616468AB0354878440DC84B
:100DF0008DE80D0032487844801C03AC0DC884E8AF
:100E00000D0041F69B300844372190FBF1F290FB36
:100E1000F1F5A5F1800501FB12041B3C02D56442EB
:100E2000012000E00020DFF898A080460027FA4467
:100E3000AAF1BE0A0EE0E0070AD03246684607EB88
:100E4000470101230AEB810100F046FB8DE8070012
:100E500064107F1C002CEED1194F7F44AE3F19E087
:100E6000E80715D007EB04100DF1180A90E80E0002
:100E70008AE80E00C068F04201D198190890324605
:100E8000012306A903A800F027FB03AB83E80700B2
:100E90006D10641C002DE3D14FF00103324669460A
:100EA000B8F1000F03A802D000F001FB01E000F050
:100EB00013FBC9E90001C9F808200AB0BDE8F087B2
:100EC0009C30000000487047B40000207546FFF7D2
:100ED000F9FFAE4605006946534620F007008546F7
:100EE00018B020B5FFF776F9BDE820404FF00006B6
:100EF0004FF000074FF000084FF0000B21F0070102
:100F0000AC46ACE8C009ACE8C009ACE8C009ACE844
:100F1000C0098D46704710B50446AFF300802046E7
:100F2000BDE81040FFF742B94FF0013C50F8042BE8
:100F300051F8043B9A4221D1A2EB0C03934313EAEC
:100F4000CC1317D150F8042B51F8043B9A4215D119
:100F5000A2EB0C03934313EACC130BD150F8042BF0
:100F600051F8043B9A4209D1A2EB0C03934313EAD4
:100F7000CC13DBD04FF00000704700BFD01A01BA8D
:100F8000B1FA81F101F0180122FA01F0CB40C1F170
:100F90002001DBB2C0B2C01A2CFA01F3D11A91437E
:100FA00011EAC311E6D1704701491820ABBEFEE734
:100FB0002600020070475FEA400C08BF91F0000F66
:100FC0004FEA8C234FEAC12243EA51514FEA1C50A9
:100FD00018BF00F5F0404FEA300018BF41F0004163
:100FE0005FEA6C5C00F02980BCF1FF3F08BF40F075
:100FF00080407047130C06BF12044FF0100C4FF0E6
:10100000000C130E04BF12020CF1080C130F04BFE6
:1010100012010CF1040C930F04BF92000CF1020CAE
:10102000D30F04BF52000CF1010C11464FF0000227
:10103000A0F11F00A0EB0C00704711F0004F08BF9B
:10104000704731F000413FF4D5AF0B0C06BF0904E7
:101050004FF0100C4FF0000C0B0E04BF09020CF106
:10106000080C0B0F04BF09010CF1040C8B0F04BF1B
:1010700089000CF1020CCB0F04BF49000CF1010CEC
:10108000CCF12003A0EB0C0022FA03F302FA0CF2DD
:1010900041EA030100F10100704720F07F4C80EA33
:1010A000030023F07F47ACEB070303F57C5300F00C
:1010B000004003F1FF032DE980494FEA154B09B4C5
:1010C0004FEA144325EA0B4E24EA03480FF20426A4
:1010D00006EB132749083E785FEA320203FB0667F6
:1010E000C7F5000707FB06F64FEA54374FEAD64626
:1010F00006F1020607FB066CCCF1005C4FEA1C47C8
:101100002CEA074C07FB06F40CFB06F504EB15462E
:101110004FEA961634BF00204FF000404FEAD13717
:1011200006FB07FC4FEA1C4C0CFB0BF7D21B03FB26
:101130000CF761EB07010CFB0EF7B0EB074072EB0D
:1011400017420CFB08F734BFA2EB0742B2EB074291
:1011500061EB17414FEA0C444FEA910706FB07FC8D
:101160004FEA1C4C0CFB0BF7B0EBC74072EB57324D
:1011700003FB0CF734BFA2EBC742B2EBC74261EBF3
:1011800057310CFB0EF7B0EBC70072EB57720CFB3C
:1011900008F734BFA2EBC702B2EBC70261EB57718D
:1011A000039F4FEA816141EA921104EBCC044FEABC
:1011B000D1374FEA826206FB07FC42EA90124FEAFF
:1011C00080604FEA1C4C0CFB0BF7D21B03FB0CF7A7
:1011D00061EB07010CFB0EF7B0EB074072EB174217
:1011E0000CFB08F734BFA2EB0742B2EB074261EBFE
:1011F00017414FEA8C554FEA910704EB9C2406FBFC
:1012000007FC4FEA1C4C0CFB0BF7B0EBC74072EB32
:10121000573203FB0CF734BFA2EBC742B2EBC74215
:1012200061EB57310CFB0EF7B0EBC70072EB577256
:101230000CFB08F734BFA2EBC702B2EBC70261EBAD
:10124000577115EB4C254FEA816141EA92114FEA43
:1012500082624FEAD13742EA901206FB07FC44F162
:1012600000044FEA80604FEA1C4C0CFB0BF7D21BCA
:1012700003FB0CF761EB07010CFB0EF7B0EB07402B
:1012800072EB17420CFB08F734BFA2EB0742B2EB3C
:10129000074261EB174115EB1C154FEA813141EA1A
:1012A00092414FEA823242EA90424FEA80304FEA5E
:1012B0000C7644F1000448EA03434EEA0B484FF031
:1012C000000EB2EB080C71EB030724BF62463946EF
:1012D0004EEB0E0E4FF0000B0018524149414BEB04
:1012E0000B0BB2EB080C71EB03077BF1000B24BF77
:1012F000624639464EEB0E0E4FF0000B001852417D
:1013000049414BEB0B0BB2EB080C71EB03077BF184
:10131000000B24BF624639464EEB0E0E51EA02071F
:1013200018BF46F0010616EB0E7655F1000254F197
:10133000000103D5BDE88901BDE80088BDE8890149
:10134000BDE80048B619524141EB0101A3F1010388
:10135000704780807F7E7D7C7B7A79787776767522
:101360007473727171706F6E6E6D6C6C6B6A6A699A
:101370006868676666656464636362616160605F34
:101380005F5E5E5D5D5C5C5B5B5A5A5959585857AD
:101390005756565555555454535352525251515015
:1013A00050504F4F4F4E4E4D4D4D4C4C4C4B4B4B68
:1013B0004A4A4A49494948484847474747464646AE
:1013C00045454544444444434343434242424241E9
:1013D0004141002B9C4630D477002BD01CB54FEAFE
:1013E000370703B44FF010004FF01001BAF1000FAF
:1013F00006D0BCF1000FDCBF40F0080040F008014F
:101400004FF000000FBCBDE810400BF1010BBBF129
:10141000010F08BF5FEA170722BF12F1010211F1A5
:1014200001014FF0004143F1000300F0004043EAA6
:1014300000007047F9D35708D0E746EA064613F193
:10144000400F4FEA16461FDD13F1200FDFBF164392
:101450000A46002120335B42BED0C3F1200746EA92
:10146000064602FA07F74FEA164646EA0706C3F1B0
:10147000200722FA03F201FA07F721FA03F14FF0ED
:10148000000342EA0702A7E746EA020646EA0646E2
:101490004FEA164646EA0106BCBF46EA0646360C47
:1014A0004FF000034FF000024FF0000194E72DE9E8
:1014B000804C9A46934670B491E8380007C831EAE8
:1014C000400C48BF34EA430C03D5FFF7E6FDFFF7B5
:1014D00080FFF0BCBDE8008C2DE9804C9A46934615
:1014E00070B491E8380007C810F0804F08BF13F0BF
:1014F000804F03D100F005F8FFF76BFFF0BCBDE8AB
:10150000008C20F07F4780EA030023F07F4C07EB3C
:101510000C03A3F57C5300F00040A3F1FE0392F00E
:10152000000F00F0B38095F0000F00F077802DE9F8
:1015300001494FEA11404FEA144621EA004800FBF6
:1015400006FC24EA064708FB06F607FB08F800FB42
:1015500007F718EB06484CEB164C4FEA124B18EB0A
:1015600007484FEA15464CEB174022EA0B4E0BFB9F
:1015700006FC25EA06470EFB06F607FB0EFE0BFBF4
:1015800007F71EEB064E4CEB164C4FF000061EEB19
:10159000074E4CEB174B18EB0B0840F1000018EB13
:1015A0000E0B58EB000840F100008F1A4FF00001BD
:1015B0003CBFC943661B14BFB5EB040C00213CBF04
:1015C000C943F61B4FEA17444EEA8E0E27EA04453C
:1015D0004FEA1C4704FB07622CEA074C05FB07F7A0
:1015E0000CFB05F604FB0CFC16EB074642EB17421E
:1015F00016EB0C4642EB1C421BEB060658EB0202B4
:10160000414146EA9E0601D5BDE80189B61952411D
:1016100041EB0101A3F10103BDE801894FEA144543
:101620004FEA114724EA054621EA074C05FB07F477
:1016300006FB07F70CFB06F105FB0CFC11EB074161
:1016400044EB17444FEA124711EB0C4144EB1C44A6
:1016500022EA074C05FB07F206FB07F70CFB06F630
:1016600005FB0CFC16EB074642EB174216EB0C464B
:1016700042EB1C456A1854F1000148BF7047B61987
:10168000524141EB0101A3F10103704795F0000FB6
:1016900037D04FEA11424FEA144721EA024624EAC2
:1016A000074C02FB07F106FB07F70CFB06F402FBF5
:1016B0000CFC14EB074441EB17414FEA154714EBC0
:1016C0000C4441EB1C4125EA074C02FB07F506FBE5
:1016D00007F70CFB06F602FB0CFC16EB074645EB86
:1016E000174516EB0C4645EB1C42121951F100014F
:1016F00048BF7047B619524141EB0101A3F1010304
:1017000070474FEA14454FEA114724EA054621EA9B
:10171000074C05FB07F106FB07F70CFB06F24FF041
:10172000000605FB0CFC12EB074241EB174112EBE4
:101730000C4251EB1C4148BF7047921841EB01012C
:10174000A3F101037047FEE770B50024282001F0E3
:101750006FFB0D4D0121284600F0C0F958B950200B
:1017600001F066FB0121284600F0B8F908B1012418
:1017700001E04FF0FF340121284600F0AFF90028C6
:10178000F9D1E0B270BD0000000801402DE9F04140
:101790000024144F01260121384600F09FF900284B
:1017A000F9D0282001F044FB0121384600F096F9D9
:1017B00090B1C4F1070106FA01F02843C5B2012136
:1017C000384600F08BF90028F9D1641CE4B2082CEB
:1017D000E1D32846BDE8F081C4F1070006FA00F025
:1017E0008543ECE70008014010B50E4C012120466E
:1017F00001F03DFA00220121204600F074F944F284
:10180000506001F015FB01221146204600F06BF9F3
:10181000142001F00DFB2046BDE81040012101F02D
:101820001BBA0000000801407047000070B500EBD3
:10183000400040061546000E01F0FBF9084905EB93
:101840004500002401EB4005281910F8C01C402079
:1018500000F0E6FA641CE4B2062CF5D370BD00007B
:101860007437000870B588B016460C4605461A460F
:1018700009A105A8FEF7C0FC304601F001FF0246B1
:101880000B4605A96846FEF7B7FC6A46214628467E
:1018900000F006F808B070BD25252E25646600000E
:1018A0002DE9F04117460E46044600250CE031466E
:1018B0002046FFF7BBFF641C6D1CE4B2EDB2152C93
:1018C00002D3761CF6B200247A5D002AEFD1BDE87F
:1018D000F08172B6FEE7000070B5044600F008F92A
:1018E0000546601C02D004480078044400F000F96A
:1018F000401BA042FAD370BD080000202DE9F84F2C
:10190000DFF8B8910024A9F1040B23460F2709F151
:10191000040AABF1040EC9E00125A5402A40AA4201
:101920007DD1674ED1F804C0ACEB0608B44532D087
:1019300014DCBCF1030F3AD009DCBCF1000F2AD053
:10194000BCF1010F1CD0BCF1020F31D11DE0BCF184
:10195000110F17D0BCF1120F2AD119E0B8F5881F6A
:1019600019D006DCB8F5803F15D0B8F5801F1FD11F
:1019700011E0B8F5001F0ED0B8F5041F18D10AE029
:10198000CB6815E0CB681B1D12E0CB6808330FE075
:10199000CB680C330CE08B682BB1012B4FF00803A4
:1019A00003D0456104E0042302E0056100E0002368
:1019B000FF2A01D8064601E000F104064FEA84053B
:1019C00001D9A5F12005D6F8008007FA05FC28EA20
:1019D0000C0803FA05F548EA0508C6F800804D68CA
:1019E000ED0062D5374DAE6946F00106AE61AD69D6
:1019F00024F0030605F001050095334D06EB050CB8
:101A0000DCF80850A607360F07FA06F825EA08059D
:101A1000DFF8B880404503D14FF0000817E044E0FC
:101A2000DFF8AC80404502D14FF001080FE0DFF84D
:101A3000A480404502D14FF0020808E0DFF898800A
:101A4000404502D14FF0030801E04FF0040808FAC6
:101A500006F848EA0508CCF808804D68D9F8006017
:101A6000ED024D4601D5164300E096432E604D68C9
:101A7000DAF80060AD02554601D5164300E0964302
:101A80002E604D68DBF80060AD035D4601D516435E
:101A900000E096432E604D68DEF80060ED03754669
:101AA00001D5164300E096432E60641C0D682A465B
:101AB000E5407FF431AFBDE8F88F00000804014035
:101AC0000000111000100240000001400008014019
:101AD000000C0140001001400014014080680840E3
:101AE00000D0012070470AB1016170470904FBE78B
:101AF00001488068704700000800002070B50400AD
:101B000025D094F83D00002520B984F83C502046AB
:101B100000F04EF9242084F83D002068016821F08F
:101B2000010101602068016841F400410160206802
:101B3000016821F40041016000F0A2FA4D4A616899
:101B4000914201D84C4900E04C49884201D2012021
:101B500070BD4B492368B0FBF1F15E6826F03F068B
:101B60000E435E606368934206D94FF496735943FF
:101B70004FF47A73B1FBF3F12368491C1E6A26F017
:101B80003F06314319626168914210D84900401EF6
:101B9000B0FBF1F2521CC2F30B02042A01D2042062
:101BA00022E0B0FBF1F0401CC0F30B001CE0A26887
:101BB000F2B301EBC10303EB0116431EB3FBF6F3D3
:101BC0005B1C43F480431B0549D092B301EBC10277
:101BD00002EB0111401EB0FBF1F0401CC0F30B0002
:101BE00040F4804040F400402168CA694CF6FF731D
:101BF0009A431043C861D4E9071001432068026882
:101C000022F0C00211430160D4E9030101432068BE
:101C1000826848F2FF339A4311438160D4E9050199
:101C200008432168CA6822F0FF021043C86001E03F
:101C30000EE016E02068016841F0010101602564B2
:101C4000202084F83D00256384F83E50002070BDBC
:101C500001EB4106431EB3FBF6F35B1CB3E7012027
:101C6000C2E701EB4101401EB0FBF1F0401CC0F3A4
:101C70000B00B7E7A086010080841E0000093D002C
:101C800040420F002DE9F84F1F4690468A46044611
:101C9000DDF82890FFF72CFF054694F83D0020283A
:101CA0007FD11923012240492046009500F072FDA2
:101CB000002876D194F83C00012872D0012084F8E5
:101CC0003C0020680168C90703D1016841F00101A7
:101CD00001602068016821F400610160212084F81E
:101CE0003D00102084F83E0000262664C4F82480BD
:101CF0006785608D20852D48E0622B464A46514617
:101D0000204600F0CDFC90B92068416980690090C0
:101D100036E02A464946204600F0E2FD50B1206CEC
:101D2000042804D12068016841F400710160012099
:101D3000BDE8F88F606A216800780861606A401C1D
:101D40006062618D491E6185218D491E89B22185A0
:101D500022685369DB435B070BD451B100781061F3
:101D6000606A401C6062608D401E6085208D401E50
:101D700020852A464946204600F0E0FC0028CED1C6
:101D8000208D0028C5D154F83D0B016841F4007145
:101D90000160202004F81E09E67766770020C7E777
:101DA000FFE70220C4E70000020010000000FFFF70
:101DB00010B586B000210091019102910391006855
:101DC0001349884222D1134CA06940F00800A06159
:101DD000A069694600F0080004904FF4407000903C
:101DE00012200190032003900B48FFF787FD0B485A
:101DF000416841F0E06141F002014160E06940F476
:101E00000010E061E06900F40010049006B010BD1D
:101E10000054004000100240000C0140000001404E
:101E20001CB502238DF804000A208DF805100090DF
:101E300001AA78210148FFF725FF1CBD18000020EA
:101E400002488168027811448160704708000020D0
:101E5000074810B5016841F010010160032000F04F
:101E600067F80F2000F006F800F024F8002010BDFD
:101E70000020024070B50D4D04464FF47A71287869
:101E8000B1FBF0F00A490968B1FBF0F000F0BEFACE
:101E900048B9102C07D200222146501E00F028F825
:101EA00000206C6070BD012070BD000008000020A3
:101EB000140000200C4808B5816941F001018161DE
:101EC000816901F001010091C16941F08051C16156
:101ED000C06900F0805000900448416821F0E06142
:101EE00041F00071416008BD001002400000014057
:101EF000F0B40E4B1B680C46C3F30223C3F1070575
:101F0000042D00D90425191D072901D2002300E062
:101F1000DB1E012606FA05F1491E214099409E402C
:101F2000761E16403143F0BC00F06ABF0CED00E0B5
:101F3000064900F0070208684FF6FF03184040EA20
:101F40000220034A10430860704700000CED00E0D7
:101F50000000FA052DE9F0470F46050061D0434E19
:101F6000306800F00700B84209D2306820F007005E
:101F700038433060306800F00700B84251D128681B
:101F80003B4C810712D5400703D5606840F4E06000
:101F900060602878000703D5606840F46050606096
:101FA0006068A96820F0F000084360602878C007E6
:101FB00028D06868012810D02168022810D089072D
:101FC00000292EDA616821F0030101436160FFF707
:101FD0008FFD804641F288390DE021688903EFE7E3
:101FE0008901EDE7FFF784FDA0EB0801494502D91F
:101FF0000320BDE8F0876068696800F00C00B0EB72
:10200000810FEFD1306800F00700B8420BD930687B
:1020100020F0070038433060306800F00700B84215
:1020200001D00120E5E72878400705D56068E96818
:1020300020F4E060084360602878000706D56068F7
:10204000296920F4605040EAC100606000F028F87F
:102050006168084AC1F30311515CC8400649086031
:1020600006480068FFF706FF0020C2E70020024094
:1020700000100240C03D0008140000200C000020A9
:102080000448054900684968044AC1F30221515CCB
:10209000C84070471400002000100240D03D0008E6
:1020A0000E4A51680E4801F00C03042B11D0082B86
:1020B0000FD10C48C1F38343C903C05C0AD55168F2
:1020C000084AC1F34041921E515C054A5043B0FB9F
:1020D000F1F0704704494843704700000010024087
:1020E00000127A00B03D000800093D002DE9F84FCC
:1020F000040070D02078C04DC00749D06868C0F394
:102100008100012807D06868C0F38100022809D146
:102110006868C00306D52868800339D56068002840
:10212000E7D035E06068B0F5803F0BD010B1B0F576
:10213000A02F11D0286820F480302860286820F46F
:10214000802002E0286840F480302860606890B108
:10215000FFF7CEFC06460AE0286840F4802028609D
:10216000F0E700BFFFF7C4FC801B642873D8286821
:102170008003F7D50CE0FFF7BBFC064605E000BF87
:10218000FFF7B6FC801B6428F0D828688003F7D4DA
:1021900020789A4E80074FF001094FF0000839D59A
:1021A000686810F00C0F07D06868C0F3810002283F
:1021B00009D16868C00306D42868800714D520694F
:1021C000012808D110E02069B0B1C6F80090FFF7EF
:1021D0008FFC074605E00AE1FFF78AFCC01B0228D6
:1021E000C4D828688007F7D52868616920F0F8000E
:1021F00040EAC10028600DE0C6F80080FFF778FCD7
:10220000074604E0FFF774FCC01B022823D82868A7
:102210008007F7D4207800072CD57948A169D9B177
:10222000C0F80090FFF764FC074604E0FFF760FC8D
:10223000C01B02280FD8686A8007F7D571484FF491
:10224000FA510068B0FBF1F0009000BF0098411E09
:102250000091FAD20EE080E0C0F80080FFF748FC61
:10226000074604E0FFF744FCC01B022875D8686AE3
:102270008007F7D42078400760D5E8690027C000C0
:1022800008D4E86940F08050E861E869012700F06F
:10229000805000905C480168C90513D401688346EA
:1022A00041F480710160FFF723FC824606E000BF25
:1022B000FFF71EFCA0EB0A0064284ED8DBF80000F4
:1022C000C005F5D5E06801280AD008B1052813D06B
:1022D000286A20F001002862286A20F0040002E049
:1022E000286A40F001002862E06841F2883B98B11A
:1022F000FFF7FEFB82460BE0286A40F004002862EC
:10230000EEE700BFFFF7F4FBA0EB0A0159455AD8EE
:10231000286A8007F6D50CE0FFF7EAFB824605E065
:10232000FFF7E6FBA0EB0A0159454CD8286A800765
:10233000F6D41FB1E86920F08050E861E06988B305
:102340006968C1F38101022944D00228C6F860807F
:1023500004D0FFF7CDFB044638E034E0FFF7C8FBBC
:10236000074604E0FFF7C4FBC01B02282BD82868EF
:102370008001F7D4206AB0F5803F05D16868A16874
:1023800020F4003008436860D4E908010843696814
:1023900021F4741108436860C6F86090FFF7A8FB49
:1023A000044606E025E000BFFFF7A2FB001B022861
:1023B00009D828688001F7D51BE000BFFFF798FB1C
:1023C000001B022802D90320BDE8F88F286880018D
:1023D000F4D40EE00128F7D06868226A00F4803156
:1023E000914204D1616A00F47010884201D001204A
:1023F000EAE70020E8E70000001002400000424247
:1024000080044242140000200070004010B5401EBD
:10241000B0F1807F01D3012010BD4FF0E024606156
:102420000F21601700F0ECFC0020A0610720206164
:10243000002010BD70B590F83C20012A26D0012460
:1024400080F83C40022280F83D2003685A689D686D
:1024500022F070060A6832435A600D4B02689A42B5
:1024600008D0B2F1804F05D00A4B9A4202D00A4BF5
:102470009A4204D1496825F080031943916080F89D
:102480003D40002180F83C10084670BD022070BD20
:10249000002C0140000400400008004010B504007A
:1024A00003D094F83D0010B107E0012010BD0020DA
:1024B00084F83C00204600F01FF8022084F83D001C
:1024C000211D206800F012FC012084F8460084F8E9
:1024D0003E0084F83F0084F8400084F8410084F80E
:1024E000420084F8430084F8440084F8450084F8EE
:1024F0003D00002010BD000008B50068B0F1804F1D
:1025000008D10548C16941F00101C161C06900F00D
:102510000100009008BD00000010024090F83D103E
:10252000012901D001207047022180F83D10006888
:102530000B49884208D0B0F1804F05D00949884244
:1025400002D00949884204D1816801F007010629B7
:1025500003D0016841F001010160002070470000D4
:10256000002C0140000400400008004001680A6A95
:1025700041F211131A4207D10A6A9B101A4203D181
:102580000A6822F001020A60012180F83D10002053
:10259000704770B5044690F83C000025012817D01C
:1025A000012684F83C60022084F83D00206882689F
:1025B00022F0770222F47F4282600868502838D0E7
:1025C0000DDC20284FD005DC90B3102811D14AE053
:1025D000022070BD302846D040280AD13BE0602858
:1025E0002FD070280DD0B0F5805F03D0B0F5005F1C
:1025F00012D0012584F83D60002084F83C00284674
:1026000070BDCB68D1E90121206800F0ABFB2068E8
:10261000816841F0770109E0CB68D1E901212068A8
:1026200000F0A0FB2068816841F480418160E1E70F
:1026300019E0CA684968206800F0A6FB50212068AC
:1026400006E0CA684968206800F0AFFB6021206896
:1026500000F092FBCEE7CA684968206800F094FB5E
:1026600040212068F4E7226801461046F0E7FEE7C3
:1026700001684A69D24352050FD46FF480624A61FF
:10268000002140F8301F202242738173026942F01A
:1026900004020261017301207047002070470000AE
:1026A000F8B50446C06A1E460D461746082807D0EE
:1026B000012805D010F5803F02D0206B122804D1EC
:1026C0002068016841F480710160134600224FF0D8
:1026D00001112046009600F05DF840B120680068C6
:1026E000C00502D54FF4007020640320F8BD2069B6
:1026F000B0F5804F0ED00620216800EAD51040F0DA
:10270000F000086133463A460B49204600F08AF84B
:1027100078B902E005F0FE0000E0E8B22168086147
:10272000054933463A46891F204600F07BF80028C9
:10273000DCD00120F8BD00000800010070B516468D
:102740000D4604461EE02046FFF792FF08B1012027
:1027500070BD681C16D0FFF7CBF9801BA84200D8CB
:1027600085B920684069C04340070BD5002044F874
:10277000300F20216173A073216941F02001216194
:102780002073E4E720684069C0434007DBD40020A1
:1027900070BD00002DE9F047984617460D460446E7
:1027A000C1F30746DDF820902AE000BFB8F1FF3FF3
:1027B00026D0FFF79DF9A0EB0901414502D8B8F1F9
:1027C000000F1DD12068012E16D0806925EA000077
:1027D0000004000C12D00020B84211D1002044F8AF
:1027E000300F20216173A073216941F02001216124
:1027F00020730120BDE8F0874069E7E70120EBE79F
:102800002068012E0AD0806925EA00000004000C2F
:1028100006D00020B842C9D00020EBE74069F3E7BA
:102820000120F7E72DE9F047984616460D46044685
:102830004FF000094FF0200AC1F3074723E020685A
:102840004069C043400515D42068016841F4007117
:10285000016021686FF480604861C4F8309084F8AA
:102860003DA084F83E90216C41F00401216484F87D
:102870003C9021E0701C06D0FFF73AF9A0EB08006D
:10288000B04203D816B1012F1FD021E02068012FDC
:1028900015D0806925EA00000004000C18D000BFA4
:1028A00044F8309F84F80DA084F80E90216941F01F
:1028B0002001216184F80C900120BDE8F087406977
:1028C00025EA00000004000CEAD12068406901E01C
:1028D0002068806925EA00000004000CAFD1ECE715
:1028E00070B516460D4604461EE02046FFF7C0FEB2
:1028F00008B1012070BD681C16D0FFF7F9F8801BE5
:10290000A84200D885B920684069C04300060BD5AD
:10291000002044F8300F20216173A073216941F039
:10292000200121612073E4E720684069C04300066C
:10293000DBD4002070BD000070B586B000241B48B9
:102940000094019402940394816941F02001816113
:10295000816901F020010491816941F004018161E4
:10296000816901F004010491816941F008018161EC
:1029700080690F4E00F008000490002211213046BB
:10298000FFF7B1F81120009001AA0120022582E88A
:10299000310069463046FEF7B1FFCDE90054694683
:1029A00030460294FEF7AAFF06B070BD0010024048
:1029B000000801400D4810B50B4901600C49416009
:1029C00000214FF480428160C0E9031241618161BE
:1029D000C1610162FFF792F8002803D0BDE8104002
:1029E000FEF777BF10BD0000005400401800002023
:1029F000A086010010B586B000241648009401940A
:102A00000294039404944FF080410594016047219F
:102A1000C0E901144FF6FF71C0E903148461FFF7A8
:102A20003DFD08B1FEF755FF4FF480500090694618
:102A30000848FFF7AEFD08B1FEF74BFF049404A968
:102A400004480594FFF7F6FC002801D0FEF741FF8B
:102A500006B010BD6C000020FEE7FEE70EB500F0EA
:102A600028F8002000F010F804A207CA8DE807003B
:102A700000216A460846FEF713FF0EBD48656C6CE0
:102A80006F20576F726C640070B5064600242146B3
:102A9000002000F0CEF8002531464020FFF7C0F9B5
:102AA0006D1CEDB2802DF7D3641CE4B2082CEED37C
:102AB00070BD10B5AE2000F08BF9202000F088F931
:102AC000102000F085F9B02000F082F9C82000F055
:102AD0007FF9022000F07CF9102000F079F9402005
:102AE00000F076F9812000F073F9FF2000F070F912
:102AF000A12000F06DF9A62000F06AF9A82000F0EE
:102B000067F93F2000F064F9A42000F061F9D320B8
:102B100000F05EF9002000F05BF9D52000F058F9D4
:102B2000F02000F055F9D92000F052F9222000F0F1
:102B30004FF9DA2000F04CF9122000F049F9DB20BF
:102B400000F046F9202000F043F98D2000F040F914
:102B5000142000F03DF9BDE81040AF2000F038B976
:102B600010B58D2000F034F9142000F031F9BDE8E3
:102B70001040AF2000F02CB91FB50020019002904A
:102B800003900220009069460148FEF7B7FE1FBD82
:102B90000008014002210148FEF7A0BF00080140E3
:102BA000704700002DE9F05F88468146FEF71CFE65
:102BB000FEF7CAFD0746FEF7E9FD8346FEF7E6FD90
:102BC0000446FEF7E3FD0646FEF7E0FD0546FEF788
:102BD000DDFD002F28D0204600F001FCDFF84CA0DE
:102BE0000022534600F08CFA07460C46584600F087
:102BF000F6FB3A46234600F0DBF900F0A7F9C8F8E7
:102C0000000045EA062000B2010403D5C0F30E001F
:102C1000404200B200F0CCFB0022534600F070FAB4
:102C200000F094F9C9F80000BDE8F09F00002440CE
:102C3000704710B50446B031C8B200F0C9F8A41C02
:102C4000E4B2102040EA141000F0C2F804F00F00C3
:102C5000BDE8104000F0BCB81FB50022CDE900125D
:102C60000121CDE902126946FEF748FE1FBD1FB5DE
:102C7000002200910121CDE9011202210391694650
:102C8000FEF73CFE1FBDFFF7DBB830B58FB0282143
:102C90006846FDF7EDFB14210AA8FDF7E9FB0121C9
:102CA0000804CDE900100024029402250491CDE926
:102CB00007504FF4E01009906846FFF717FA08B183
:102CC00072B6FEE70F20CDE90A054FF48060CDE92A
:102CD0000C4002210AA80E94FFF73CF9002801D00D
:102CE00072B6FEE70FB030BD70470000F0B5026865
:102CF000194B1A4C1A4D4FF08047984205D0B842F4
:102D000003D0A04201D0A84203D122F070064A6845
:102D10003243984205D0B84203D0A04201D0A84225
:102D200003D122F44074CA6822434C6922F0800225
:102D3000224302608A68C2620A688262984201D1B4
:102D400009690163012141610169C90703D0016972
:102D500021F001010161F0BD002C014000040040A0
:102D60000008004010B5846842EA032224F47F443E
:102D70000A432243826010BD826822F070020A4337
:102D800042F007018160704710B5036A046A24F0BD
:102D900001040462846924F0F00444EA021423F07C
:102DA0000A020A438461026210BD10B5036A046A14
:102DB00024F010040462846923F0A00324F4704416
:102DC00044EA023243EA01118261016210BDFEE76A
:102DD00001460020FFF724B8490050EAC12018BF7F
:102DE00004204A0D18BF40F0010040F2FF72B2EB20
:102DF000515F08BF40F00200012808BF052070475E
:102E00000907090E002804DB00F1E02080F8001417
:102E1000704700F00F0000F1E02080F8141D7047AB
:102E200030380A2801D20120704700207047000086
:102E300070B54FF6FA75094E281A84B230684462AC
:102E40003046FFF76BFB306801E0416A8CB2AC4260
:102E5000FBD3BDE870400148FFF788BB6C00002041
:102E6000FEF7F6FFFFF711FFFFF766FDFFF7A2FD84
:102E7000FFF7C0FDFFF780FEFFF71BFEFFF770FEB8
:102E8000FFF7ECFD002118A20846FEF709FD1AA283
:102E900003210020FEF704FD1AA205210020FEF701
:102EA000FFFC1C4C40F26C751A49091D081FFFF706
:102EB00079FE0223012100202268FEF7D3FC0223C1
:102EC000042100206268FEF7CDFC2846FEF704FDD1
:102ED000FFF760FE08B110A200E010A205210E204D
:102EE000FEF7DEFCE0E7000054656D70657261740A
:102EF0007572653A0000000048756D6964697479FF
:102F00003A000000686176652070656F706C653FFF
:102F10003A00000000000020590000004E000000B0
:102F200010B500290AD00878002807D00548784451
:102F3000FDF7FAFF002801D0002010BD02487844B8
:102F400010BD0000960F00008E0F000021F000421F
:102F5000A2F16052B2F5801F01F0004328BFD2F108
:102F60007F6C0BD95FEA001C43EAC20242EB50704F
:102F700018BF704728BF20F001007047B2F5801FCE
:102F8000BCBF184670474FEA410C1CF5001F02D227
:102F9000084600F0E6BB70B500F034FA0000008986
:102FA000FFF7F6BF4FF00040A0F58000704700002B
:102FB00010B591EA030F48BF83F0004300F17E8211
:102FC000841A71EB030C05D2121943EB0C03001B9E
:102FD00061EB0C01DFF824E14FEA1154A4EB135C20
:102FE0001EEA430F18BF9EEA445F73D023EA0E0324
:102FF000DCF1200E21EA045143F4801332D322FA8B
:103000000CFE10EB0E0023FA0CFE41EB0E01CCF18E
:10301000200E03FA0EFE10EB0E0051F10001B1F587
:10302000801FCCF1200E32D201EB045112FA0EF2C5
:10303000BDE8104058BF7047401C38BF5FEA4202ED
:1030400018BF7047002814BF20F0010041F10001B3
:103050004FEA410313F5001F38BF7047A1F1C0418B
:1030600000F01EBA012A43EB0302ACF1200CDCF1A4
:103070001F0E32BF4FF0000E23FA0CF310EB0300CB
:1030800041EB0451B4EB115FD0D0A1EB045101F539
:10309000801149085FEA300001EB04510ED350F172
:1030A000000038BF12FA0EFE08D1BDE81040C9E793
:1030B000401C38BF5FEA4202CAD1C3E7BDE81040F6
:1030C0004FEA410313F5001F38BF7047A1F1C0411B
:1030D00000F0E6B99EEA445F08D011EA5E0FBDE851
:1030E000104004BF01F0004100207047BDE81040CF
:1030F00070B500F087F900BF64FBBE3E0000E0FF42
:103100002DE9C04130B4DFF8A0C23CEA111418BF69
:103110003CEA131400F0EC8081EA03051CEA111468
:1031200044EAD57418BF1CEA131500F0C780A4EB5D
:1031300005044FF0004545EAC12145EAC32341EAB1
:10314000505143EA525304F17F74994204F500341C
:103150004FEAC0204FEAC22208BF904200F09C8094
:103160004FEA13650FF24016765D4FEA134506FBF2
:1031700005F7C7F1807706FB07F74FEAD737A7FBBC
:1031800003687642C8F58038A7FB06CE38BFA8F1A1
:10319000010807FB08E64FF0000EA6FB028CE6FBD9
:1031A00003CEDCF1000CCEF1004E38BFAEF1010EC3
:1031B000A6FB0C584FF000074FF00005E6FB0E870A
:1031C000A1FB08C6A0FB07CE16EB0E0645F10005D5
:1031D000E1FB076515F1E04E7EBFA4F580345FEAA0
:1031E00046066D4116F1800745F100054FEA1727A5
:1031F0004FEA066647EA0567A6F1DE46B6F1805F4C
:103200004FEA15251FD9384624F0010C05EBC4718F
:10321000BCF1FE6F01EB0C1102D8F0BCBDE80081DF
:1032200024425CBF01F5801E9EEAC47F02D4F0BC3C
:10323000BDE80081244238D4F0BCA1F1C041BDE812
:10324000004100F02DB94FEAD22242EA43524FEA40
:10325000D323A7FB02864FEAD02040EA415007FB68
:1032600003661EEA0E0F4FEAD12105FB026658BF26
:10327000A6EB0056B6EB00564FEA520E4EEAC37E5E
:1032800018EB0E0E56EB530EBDD518EB02085E413F
:103290007F1C55F10005B6E74FF480154FF000078D
:1032A0004FF000064FF00008ADE7F0BC4FF0000013
:1032B00001F1C04101F00041BDE8008111EA0C1F9D
:1032C0000CEA131500D00CE013EA0C1F00F0258067
:1032D0004FF00000F0BC81EA030101F00041BDE8BD
:1032E0000081F0BCBDE8004181EA030100F0D8B8DC
:1032F000F0BCBDE8004170B500F084F8097EFC3EEA
:1033000000F007B881EA03014FF0000001F000412E
:10331000704781EA030100F0C3B8F0BCBDE800418A
:103320004FF0000021497047FFFDFBF9F7F5F4F27B
:10333000F0EEEDEBE9E8E6E4E3E1E0DEDDDBDAD850
:10334000D7D5D4D3D1D0CFCDCCCBCAC8C7C6C5C4AE
:10335000C2C1C0BFBEBDBCBBBAB9B8B7B6B5B4B3C5
:10336000B2B1B0AFAEADACABAAA9A8A8A7A6A5A4B0
:10337000A3A3A2A1A09F9F9E9D9C9C9B9A99999874
:103380009797969595949393929191908F8F8E8E17
:103390008D8C8C8B8B8A89898888878786858584A4
:1033A00084838382828181800000FF070000F87F90
:1033B00010F0004248BF4042B0FA80F310FA03F127
:1033C0000AD0C3F11D0303F580634FEA415002EBBD
:1033D000035202EBD12170474FF000007047B0FA62
:1033E00080F310FA03F10AD0C3F11D0303F58063E3
:1033F0004FEA41504FEA035202EBD12170474FF0A0
:10340000000070470EF1020E2EF0030E5EF8046B02
:10341000364205D4012A43EB030515F5001F12D8E7
:10342000012841EB010C1CF5001F0CD80ED14FEA0E
:10343000D17C15F5001F0CEB4C0C0CF1020C08BFF5
:103440004CEBD37C04E04FF0080C01E04FEAD37C56
:103450000CEB4C0526FA05F606F00706B6F1040C4F
:1034600006D20EEB860CBDE870404CF0010C6047B4
:10347000DFE80CF0090B02024FF000414FF00000B2
:10348000A1F5002170BD19461046012851EB010439
:1034900018BFD4F5001484BF002001F0004170BDB6
:1034A0000808A0F500114FEA3101704710B591EA04
:1034B000030F48BF83F000433FF582AD841A71EBE0
:1034C000030C07D212198CF0004C43EB0C03001BC9
:1034D00061EB0C01DFF8A4E14FEA1154A4EB135C9B
:1034E0001EEA430F18BF9EEA445F00F0B08023EA53
:1034F0006E03524221EA0451C3EB6E0338BF5B1ED8
:10350000DCF1200E25D322FA0CFE10EB0E0043FA5C
:103510000CFE41EB0E01CCF1200E03FA0EFE10EB77
:103520000E0051F10001CCF1200E29D412FA0EF256
:1035300001EB0451BDE8104058BF7047401C1CBF50
:10354000B2F1004F704700280CBF491C20F0010069
:10355000704712EB020E43EB030218BF4FF0010E4F
:103560004EEA4202ACF1200CDCF11E0E54D943FAB3
:103570000CFE10EB0E0051F1FF31CCF11E0ED5D533
:103580000EF1010E12FA0EFE404141EB010101EB7A
:10359000445C5FEA5C5C10D910EBDE7001EB045117
:1035A00038BFBEF1004FBDE8104018BF704700287B
:1035B0000CBF491C20F00100704730D24FEAD42CD8
:1035C00011F5001124F400641BD0B1FA81F20B3A1A
:1035D000A41AA41ED2F12003914030FA03F3194338
:1035E000904001EBCC71002C01EB0451BDE8104080
:1035F000A8BF704701F1C0414FF0000001F0004149
:103600007047B0FA80F310FA03F100D110BDE41A4C
:10361000173C4805C90AE4E701EB045110BD491005
:1036200001EB0451BDE810404FEA300002E04FF0DA
:10363000000170474A0008BF0042F8D0B2F5001FF1
:1036400028BF704701F000414FF0000070479EEA2C
:10365000445F07D011EA5E0FBDE8104004BF0021AF
:1036600000207047BDE8104070B5FFF7CBFE00BFEB
:1036700040DFF63E83F00041104670470000E0FF57
:1036800043004FEAD30C4FEA3C0C43401FBF4007B6
:103690000CF1605113F0FE4F70471CF0006F03D126
:1036A00000200CF0004170470CF0004343EA5070DA
:1036B00010B540EACC0000F00EF800BF0000009208
:1036C0004FEA0001FFF7ECBE4FF000414FF0000061
:1036D000A1F5002170470EF1020E2EF0030E5EF8E8
:1036E000044B244204D44FEA4102B2F17F4F11D877
:1036F0004FEA4003B3F17F4F0CD80ED14FEAD07C94
:10370000B2F17F4F0CEB4C0C0CF1020C08BF4CEBF0
:10371000D17C04E04FF0080C01E04FEAD17C0CEBC7
:103720004C0324FA03F404F00704B4F1040C06D2A9
:103730000EEB840CBDE810404CF0010C6047DFE854
:103740000CF0070802024FF00040A0F5800010BD09
:103750000846420018BFD2F1807288BF00F00040D6
:1037600010BDFF2141EAD050C0057047FCF7DCBF17
:10377000FDF710B90000000000000000002F00005D
:1037800000000700070000147F147F1400242A7F24
:103790002A120023130864620036495522500000A3
:1037A0000503000000001C224100000041221C0013
:1037B0000014083E08140008083E0808000000A095
:1037C0006000000808080808000060600000002091
:1037D00010080402003E5149453E0000427F40006F
:1037E000004261514946002141454B3100181412F5
:1037F0007F10002745454539003C4A4949300001C2
:103800007109050300364949493600064949291E10
:103810000000363600000000563600000008142272
:103820004100001414141414000041221408000272
:103830000151090600324959513E007C1211127C97
:10384000007F49494936003E41414122007F4141C4
:10385000221C007F49494941007F09090901003EB6
:103860004149497A007F0808087F0000417F4100F4
:10387000002040413F01007F08142241007F40406A
:103880004040007F020C027F007F0408107F003E52
:103890004141413E007F09090906003E4151215E38
:1038A000007F091929460046494949310001017F35
:1038B0000101003F4040403F001F2040201F003FCB
:1038C0004038403F0063140814630007087008077D
:1038D00000615149454300007F4141000002040856
:1038E0001020000041417F0000040201020400405A
:1038F000404040400000010204000020545454782D
:10390000007F48444438003844444420003844444C
:10391000487F00385454541800087E0901020018EA
:10392000A4A4A47C007F080404780000447D400027
:10393000004080847D00007F102844000000417F0B
:103940004000007C04180478007C080404780038E7
:103950004444443800FC242424180018242418FC6F
:10396000007C0804040800485454542000043F44D8
:103970004020003C4040207C001C2040201C003C9B
:103980004030403C004428102844001CA0A0A07CEB
:10399000004464544C440000087F41000000007F54
:1039A00000000000417F0800001008181008000007
:1039B0000000000000000000000000000000000007
:1039C00000000000000000000000000000000000F7
:1039D00000000000000000000000000000000000E7
:1039E00000000000000000000000000000000000D7
:1039F00000000000000000000000000000000000C7
:103A00000000C0F8000000000000000000000000FE
:103A100000000000000000000000000000000000A6
:103A20000000000000000000000000000000000096
:103A30000000000000000000000000000000000086
:103A40000000000000000080E0F0800000000000A6
:103A50000000000000000000000000000000000066
:103A600000000000000000000000000000C0F0C0E6
:103A700080000000000000000000000000000000C6
:103A8000C0F8FFFFFEE08000000000000000000022
:103A90000000000000000000000000000000000026
:103AA0000000000000000000000000000000000016
:103AB0000000000000000000000000000000000006
:103AC000000000000202FFFFFFFFFFFF0302E2E22F
:103AD000E2C2C2C24242425A7E7E7A42424242C25E
:103AE000E2E2E2C2820202424242424347CFFFDFA9
:103AF000C7E3F2E2C0800000E0E0E0C0C0C242479D
:103B0000474FFFFFDF47474342C0E0E0E0E0C0C06F
:103B100000000000000000000000000000000000A5
:103B20000000000000000000000000000000000095
:103B30000000000000000000000000000000000085
:103B4000000000000000FFFFFFFFFFFF0000FFFF7D
:103B5000FFFFFF880808080808080808080000FF99
:103B6000FFFFFFFF010000FEFEFEFE0000FFFFFF63
:103B7000FF03F3F3F3F300F0FFFFFFFFFF1038380C
:103B80007CFEFFFFFF7C383810FFFFFFFFFFFF00C8
:103B90000000000000000000000000000000000025
:103BA0000000000000000000000000000000000015
:103BB0000000000000000000000000000000000005
:103BC0000000000080E0FFFF7F3F0FC1C0E0E3E3A3
:103BD000F3F3F161410101FFFFFFFFFF0141617359
:103BE000F3F3F3E3E0E0C0FFFFFF3F0000FFFFFF60
:103BF000FF001F1F0F03003F3F3F3F1F0F04848440
:103C0000C4E4FFFFE5C4848404071F1F3F3F7F0017
:103C100000000000000000000000000000000000A4
:103C20000000000000000000000000000000000094
:103C30000000000000000000000000000000000084
:103C40000000040603030100000001030305050052
:103C5000000000000000007F3F1F0F070000000071
:103C6000000000000507030301000000007F3F1F64
:103C70000700000000000000000000000001030336
:103C80000F7FFFFFFF1F070301010000000000007E
:103C90000000000000000000000000000000000024
:103CA0000000000000000000000000000000000014
:103CB0000000000000000000000000000000000004
:103CC00000000000000000000000000000000000F4
:103CD00000000000000000000000000000000000E4
:103CE00000000000000000000000000000000000D4
:103CF00000000000000000000000000000000000C4
:103D000000003FFF03000000000000000000000072
:103D100000000000000000000000000000000000A3
:103D20000000000000000000000000000000000093
:103D30000000000000000000000000000000000083
:103D40000000000000000000000000000000000073
:103D50000000000000000000000000000000000063
:103D60000000000000000000000000000000000053
:103D70000000000000000000000000000000000043
:103D8000000000070000000000000000000000002C
:103D90000000000000000000000000000000000023
:103DA0000000000000000000000000000000010210
:103DB00002030405060708090A0B0C0D0E0F10106C
:103DC00000000000000000000102030406070809CB
:103DD00000000000010203040400000800000000CD
:103DE000000000020001000010303132333435365B
:103DF0003738396162636465667870003031323318
:103E0000343536373839414243444546585000002E
:103E100002400000000000A000000000054000007B
:103E2000000000C8000000000C4000000000409CA2
:103E300000000000194000000020BCBE000000008F
:103E400034400000BFC91B8E00000004B5400000D4
:103E5000504BCFD06607E2CF010000006C4100005C
:103E60003E8251AADFEEA73401000000D9420000D3
:103E7000DCB5A0E23A301F97FFFFFFFFB44500001A
:103E8000FD25A0C8E9A3C14FFFFFFFFFFF3F0000D2
:103E90000000008000000000FF3F000000000080E4
:103EA00000000000E03E00080000002018000000B4
:103EB00028010008F83E0008180000200007000054
:103EC000440100081C00000043000000F8FFFFFF51
:103ED0000C0000000E0000000F0000002E0000008B
:103EE00000000000000000000100000010000000C1
:083EF0000000000000127A003E
:04000005080000ED02
:00000001FF
