:020000040800F2
:10000000C806002089010008D3110008590E000815
:10001000D11100088F0200086713000800000000DB
:10002000000000000000000000000000DB120008DB
:100030009102000800000000D91200080313000814
:10004000A3010008A3010008A3010008A301000800
:10005000A3010008A3010008A3010008A3010008F0
:10006000A3010008A3010008A3010008A3010008E0
:10007000A3010008A3010008A3010008A3010008D0
:10008000A3010008A3010008A3010008A3010008C0
:10009000A3010008A3010008A3010008A3010008B0
:1000A000A3010008A3010008A3010008A3010008A0
:1000B000A3010008A3010008A3010008A301000890
:1000C000A3010008A3010008A3010008A301000880
:1000D000A3010008A3010008A3010008A301000870
:1000E000A3010008A3010008A301000800F002F822
:1000F00000F03AF80AA090E8000C82448344AAF188
:100100000107DA4501D100F02FF8AFF2090EBAE885
:100110000F0013F0010F18BFFB1A43F0010318473B
:100120003019000050190000103A24BF78C878C177
:10013000FAD8520724BF30C830C144BF04680C60ED
:10014000704700000023002400250026103A28BF35
:1001500078C1FBD8520728BF30C148BF0B60704739
:100160001FB51FBD10B510BD00F058F81146FFF7C0
:10017000F7FF01F00DF900F076F803B4FFF7F2FF96
:1001800003BC00F07DF8000009488047094800479B
:10019000FEE7FEE7FEE7FEE7FEE7FEE7FEE7FEE737
:1001A000FEE7FEE704480549054A064B7047000094
:1001B00065130008ED000008C8000020C8060020F4
:1001C000C8020020C80200204FF0000200B513460C
:1001D00094469646203922BFA0E80C50A0E80C5067
:1001E000B1F12001BFF4F7AF090728BFA0E80C5018
:1001F00048BF0CC05DF804EB890028BF40F8042B11
:1002000008BF704748BF20F8022B11F0804F18BF7D
:1002100000F8012B7047704770477047754600F033
:100220002BF8AE4605006946534620F00700854688
:1002300018B020B5FFF7B6FFBDE820404FF000062C
:100240004FF000074FF000084FF0000B21F00701BE
:10025000AC46ACE8C009ACE8C009ACE8C009ACE801
:10026000C0098D46704710B50446AFF300802046A4
:10027000BDE81040FFF781BF0048704764000020D0
:1002800001491820ABBEFEE7260002007047FEE7DA
:100290007047000070B500EB400040061546000EA8
:1002A00001F01CF8084905EB4500002401EB40056E
:1002B000281910F8C01C402000F0C4FA641CE4B2F5
:1002C000062CF5D370BD0000EC1300082DE9F041B9
:1002D00017460E46044600250CE031462046FFF73F
:1002E000D9FF641C6D1CE4B2EDB2152C02D3761C50
:1002F000F6B200247A5D002AEFD1BDE8F08172B633
:10030000FEE7000070B5044600F004F90546601CE5
:1003100002D004480078044400F0FCF8401BA042DE
:10032000FAD370BD000000202DE9F84FDFF8B89136
:100330000024A9F1040B23460F2709F1040AABF1AD
:10034000040EC9E00125A5402A40AA427DD1674E8E
:10035000D1F804C0ACEB0608B44532D014DCBCF1D3
:10036000030F3AD009DCBCF1000F2AD0BCF1010F19
:100370001CD0BCF1020F31D11DE0BCF1110F17D020
:10038000BCF1120F2AD119E0B8F5881F19D006DC8C
:10039000B8F5803F15D0B8F5801F1FD111E0B8F532
:1003A000001F0ED0B8F5041F18D10AE0CB6815E085
:1003B000CB681B1D12E0CB6808330FE0CB680C3311
:1003C0000CE08B682BB1012B4FF0080303D0456183
:1003D00004E0042302E0056100E00023FF2A01D8C5
:1003E000064601E000F104064FEA840501D9A5F1B3
:1003F0002005D6F8008007FA05FC28EA0C0803FA65
:1004000005F548EA0508C6F800804D68ED0062D59C
:10041000374DAE6946F00106AE61AD6924F00306C2
:1004200005F001050095334D06EB050CDCF808508E
:10043000A607360F07FA06F825EA0805DFF8B880A0
:10044000404503D14FF0000817E044E0DFF8AC80EE
:10045000404502D14FF001080FE0DFF8A48040458D
:1004600002D14FF0020808E0DFF89880404502D141
:100470004FF0030801E04FF0040808FA06F848EAD4
:100480000508CCF808804D68D9F80060ED024D46AB
:1004900001D5164300E096432E604D68DAF80060FF
:1004A000AD02554601D5164300E096432E604D68D7
:1004B000DBF80060AD035D4601D5164300E09643CE
:1004C0002E604D68DEF80060ED03754601D51643D9
:1004D00000E096432E60641C0D682A46E5407FF4D8
:1004E00031AFBDE8F88F0000080401400000111092
:1004F000001002400000014000080140000C0140D3
:1005000000100140001401400AB101617047090464
:10051000FBE70000014880687047000000000020F1
:1005200070B5040025D094F83D00002520B984F86A
:100530003C50204600F04EF9242084F83D0020680D
:10054000016821F0010101602068016841F4004167
:1005500001602068016821F40041016000F0A2FA06
:100560004D4A6168914201D84C4900E04C498842AB
:1005700001D2012070BD4B492368B0FBF1F15E68E8
:1005800026F03F060E435E606368934206D94FF43F
:10059000967359434FF47A73B1FBF3F12368491C06
:1005A0001E6A26F03F06314319626168914210D8F5
:1005B0004900401EB0FBF1F2521CC2F30B02042AA8
:1005C00001D2042022E0B0FBF1F0401CC0F30B008C
:1005D0001CE0A268F2B301EBC10303EB0116431E5A
:1005E000B3FBF6F35B1C43F480431B0549D092B385
:1005F00001EBC10202EB0111401EB0FBF1F0401C07
:10060000C0F30B0040F4804040F400402168CA6908
:100610004CF6FF739A431043C861D4E907100143B5
:100620002068026822F0C00211430160D4E903018E
:1006300001432068826848F2FF339A431143816086
:10064000D4E9050108432168CA6822F0FF0210437B
:10065000C86001E00EE016E02068016841F0010189
:1006600001602564202084F83D00256384F83E5015
:10067000002070BD01EB4106431EB3FBF6F35B1C8B
:10068000B3E70120C2E701EB4101401EB0FBF1F0EE
:10069000401CC0F30B00B7E7A086010080841E0059
:1006A00000093D0040420F002DE9F84F1F469046DB
:1006B0008A460446DDF82890FFF72CFF054694F89B
:1006C0003D0020287FD11923012240492046009572
:1006D00000F054FC002876D194F83C00012872D038
:1006E000012084F83C0020680168C90703D1016833
:1006F00041F0010101602068016821F4006101609E
:10070000212084F83D00102084F83E000026266455
:10071000C4F824806785608D20852D48E0622B46D3
:100720004A465146204600F0AFFB90B92068416927
:100730008069009036E02A464946204600F0C4FC15
:1007400050B1206C042804D12068016841F4007184
:1007500001600120BDE8F88F606A216800780861B7
:10076000606A401C6062618D491E6185218D491E51
:1007700089B2218522685369DB435B070BD451B1F1
:1007800000781061606A401C6062608D401E608568
:10079000208D401E20852A464946204600F0C2FB97
:1007A0000028CED1208D0028C5D154F83D0B01681A
:1007B00041F400710160202004F81E09E677667795
:1007C0000020C7E7FFE70220C4E700000200100096
:1007D0000000FFFF10B586B0002100910191029149
:1007E000039100681349884222D1134CA06940F05C
:1007F0000800A061A069694600F0080004904FF469
:100800004070009012200190032003900B48FFF7E6
:100810008BFD0B48416841F0E06141F0020141600D
:10082000E06940F40010E061E06900F40010049019
:1008300006B010BD0054004000100240000C014002
:10084000000001401CB502238DF804000A208DF839
:100850000510009001AA78210148FFF725FF1CBD73
:1008600010000020024881680278114481607047BE
:1008700000000020074810B5016841F01001016038
:10088000032000F067F80F2000F006F800F024F8CD
:10089000002010BD0020024070B50D4D04464FF4FD
:1008A0007A712878B1FBF0F00A490968B1FBF0F0E1
:1008B00000F0BEFA48B9102C07D200222146501E83
:1008C00000F028F800206C6070BD012070BD0000B1
:1008D000000000200C0000200C4808B5816941F0A0
:1008E00001018161816901F001010091C16941F05B
:1008F0008051C161C06900F0805000900448416897
:1009000021F0E06141F00071416008BD001002403B
:1009100000000140F0B40E4B1B680C46C3F30223E9
:10092000C3F10705042D00D90425191D072901D29B
:10093000002300E0DB1E012606FA05F1491E2140D6
:1009400099409E40761E16403143F0BC00F010BD29
:100950000CED00E0064900F0070208684FF6FF03BF
:10096000184040EA0220034A104308607047000024
:100970000CED00E00000FA052DE9F0470F460500F8
:1009800061D0434E306800F00700B84209D23068A9
:1009900020F0070038433060306800F00700B842AC
:1009A00051D128683B4C810712D5400703D56068B8
:1009B00040F4E06060602878000703D5606840F488
:1009C000605060606068A96820F0F00008436060D3
:1009D0002878C00728D06868012810D0216802282C
:1009E00010D0890700292EDA616821F00301014344
:1009F0006160FFF78FFD804641F288390DE0216884
:100A00008903EFE78901EDE7FFF784FDA0EB08011B
:100A1000494502D90320BDE8F0876068696800F0A5
:100A20000C00B0EB810FEFD1306800F00700B84246
:100A30000BD9306820F0070038433060306800F090
:100A40000700B84201D00120E5E72878400705D526
:100A50006068E96820F4E060084360602878000777
:100A600006D56068296920F4605040EAC1006060E2
:100A700000F028F86168084AC1F30311515CC840CE
:100A80000649086006480068FFF706FF0020C2E735
:100A90000020024000100240381A00080C0000201C
:100AA000040000200448054900684968044AC1F36D
:100AB0000221515CC84070470C0000200010024029
:100AC000481A00080E4A51680E4801F00C03042B26
:100AD00011D0082B0FD10C48C1F38343C903C05C6C
:100AE0000AD55168084AC1F34041921E515C054A3B
:100AF0005043B0FBF1F07047044948437047000091
:100B00000010024000127A00281A000800093D0077
:100B10002DE9F84F040070D02078C04DC00749D0AF
:100B20006868C0F38100012807D06868C0F38100BD
:100B3000022809D16868C00306D52868800339D522
:100B400060680028E7D035E06068B0F5803F0BD0E2
:100B500010B1B0F5A02F11D0286820F480302860A3
:100B6000286820F4802002E0286840F48030286063
:100B7000606890B1FFF7CEFC06460AE0286840F4B2
:100B800080202860F0E700BFFFF7C4FC801B6428CA
:100B900073D828688003F7D50CE0FFF7BBFC064646
:100BA00005E000BFFFF7B6FC801B6428F0D828687A
:100BB0008003F7D420789A4E80074FF001094FF058
:100BC000000839D5686810F00C0F07D06868C0F3CA
:100BD0008100022809D16868C00306D4286880070C
:100BE00014D52069012808D110E02069B0B1C6F8F9
:100BF0000090FFF78FFC074605E00AE1FFF78AFC4B
:100C0000C01B0228C4D828688007F7D52868616906
:100C100020F0F80040EAC10028600DE0C6F800802E
:100C2000FFF778FC074604E0FFF774FCC01B0228BE
:100C300023D828688007F7D4207800072CD5794876
:100C4000A169D9B1C0F80090FFF764FC074604E041
:100C5000FFF760FCC01B02280FD8686A8007F7D531
:100C600071484FF4FA510068B0FBF1F0009000BFFA
:100C70000098411E0091FAD20EE080E0C0F800809A
:100C8000FFF748FC074604E0FFF744FCC01B0228BE
:100C900075D8686A8007F7D42078400760D5E8697E
:100CA0000027C00008D4E86940F08050E861E86996
:100CB000012700F0805000905C480168C90513D4FA
:100CC0000168834641F480710160FFF723FC82468E
:100CD00006E000BFFFF71EFCA0EB0A0064284ED818
:100CE000DBF80000C005F5D5E06801280AD008B19E
:100CF000052813D0286A20F001002862286A20F015
:100D0000040002E0286A40F001002862E06841F235
:100D1000883B98B1FFF7FEFB82460BE0286A40F063
:100D200004002862EEE700BFFFF7F4FBA0EB0A0126
:100D300059455AD8286A8007F6D50CE0FFF7EAFB38
:100D4000824605E0FFF7E6FBA0EB0A0159454CD8C7
:100D5000286A8007F6D41FB1E86920F08050E86166
:100D6000E06988B36968C1F38101022944D002288F
:100D7000C6F8608004D0FFF7CDFB044638E034E0CD
:100D8000FFF7C8FB074604E0FFF7C4FBC01B0228BF
:100D90002BD828688001F7D4206AB0F5803F05D1B0
:100DA0006868A16820F4003008436860D4E908014D
:100DB0000843696821F4741108436860C6F86090BC
:100DC000FFF7A8FB044606E025E000BFFFF7A2FB03
:100DD000001B022809D828688001F7D51BE000BF56
:100DE000FFF798FB001B022802D90320BDE8F88F0B
:100DF00028688001F4D40EE00128F7D06868226AE0
:100E000000F48031914204D1616A00F4701088428C
:100E100001D00120EAE70020E8E7000000100240CE
:100E200000004242800442420C000020007000405A
:100E300010B5401EB0F1807F01D3012010BD4FF0EE
:100E4000E02460610F21601700F092FA0020A06199
:100E500007202061002010BDFEE701684A69D243E7
:100E600052050FD46FF480624A61002140F8301FB0
:100E7000202242738173026942F00402026101730D
:100E80000120704700207047F8B50446C06A1E462E
:100E90000D461746082807D0012805D010F5803FD9
:100EA00002D0206B122804D12068016841F48071BF
:100EB0000160134600224FF001112046009600F019
:100EC0005DF840B120680068C00502D54FF400709D
:100ED00020640320F8BD2069B0F5804F0ED00620B5
:100EE000216800EAD51040F0F000086133463A4628
:100EF0000B49204600F08AF878B902E005F0FE00C0
:100F000000E0E8B221680861054933463A46891F86
:100F1000204600F07BF80028DCD00120F8BD00005E
:100F20000800010070B516460D4604461EE0204636
:100F3000FFF793FF08B1012070BD681C16D0FFF7C2
:100F4000E9FA801BA84200D885B920684069C043EF
:100F500040070BD5002044F8300F20216173A073A7
:100F6000216941F0200121612073E4E72068406994
:100F7000C0434007DBD4002070BD00002DE9F047DE
:100F8000984617460D460446C1F30746DDF8209003
:100F90002AE000BFB8F1FF3F26D0FFF7BBFAA0EB75
:100FA0000901414502D8B8F1000F1DD12068012E7A
:100FB00016D0806925EA00000004000C12D0002041
:100FC000B84211D1002044F8300F20216173A07382
:100FD000216941F02001216120730120BDE8F087E3
:100FE0004069E7E70120EBE72068012E0AD080691D
:100FF00025EA00000004000C06D00020B842C9D049
:101000000020EBE74069F3E70120F7E72DE9F0471F
:10101000984616460D4604464FF000094FF0200A48
:10102000C1F3074723E020684069C043400515D459
:101030002068016841F40071016021686FF48060EC
:101040004861C4F8309084F83DA084F83E90216C4B
:1010500041F00401216484F83C9021E0701C06D02A
:10106000FFF758FAA0EB0800B04203D816B1012FE1
:101070001FD021E02068012F15D0806925EA0000EB
:101080000004000C18D000BF44F8309F84F80DA075
:1010900084F80E90216941F02001216184F80C90C0
:1010A0000120BDE8F087406925EA00000004000C3B
:1010B000EAD12068406901E02068806925EA0000E3
:1010C0000004000CAFD1ECE770B516460D4604469F
:1010D0001EE02046FFF7C1FE08B1012070BD681C6C
:1010E00016D0FFF717FA801BA84200D885B92068F0
:1010F0004069C04300060BD5002044F8300F202182
:101100006173A073216941F0200121612073E4E73C
:1011100020684069C0430006DBD4002070BD000099
:1011200030B585B0002418480094019402940394CB
:10113000816941F020018161816901F02001049100
:10114000816941F004018161816901F00401049128
:10115000816941F00801816180690C4D00F008004F
:101160000490002210212846FFF7CEF910200090AD
:101170000120CDE901040220039069462846FFF7CB
:10118000D3F805B030BD0000001002400008014057
:101190000D4810B50B4901600C49416000214FF426
:1011A00080428160C0E9031241618161C1610162D5
:1011B000FFF7B6F9002803D0BDE81040FFF79FB84D
:1011C00010BD00000054004010000020A086010067
:1011D000FEE7FEE70EB500F028F8002000F010F85A
:1011E00004A207CA8DE8070000216A460846FFF7F7
:1011F0006DF80EBD48656C6C6F20576F726C6400A3
:1012000070B5064600242146002000F067F800254E
:1012100031464020FFF716FB6D1CEDB2802DF7D351
:10122000641CE4B2082CEED370BD10B5AE2000F003
:101230009BF8202000F098F8102000F095F8B020DE
:1012400000F092F8C82000F08FF8022000F08CF82F
:10125000102000F089F8402000F086F8812000F08E
:1012600083F8FF2000F080F8A12000F07DF8A62090
:1012700000F07AF8A82000F077F83F2000F074F82A
:10128000A42000F071F8D32000F06EF8002000F0E8
:101290006BF8D52000F068F8F02000F065F8D92050
:1012A00000F062F8222000F05FF8DA2000F05CF82D
:1012B000122000F059F8DB2000F056F8202000F052
:1012C00053F88D2000F050F8142000F04DF8BDE8E0
:1012D0001040AF2000F048B87047704710B5044682
:1012E000B031C8B200F040F8A41CE4B2102040EACB
:1012F000141000F039F804F00F00BDE8104000F0C1
:1013000033B8FFF7AFBA30B58FB028216846FEF783
:101310005BFF14210AA8FEF757FF01210804CDE95D
:1013200000100024029402250491CDE907504FF4E7
:10133000E01009906846FFF7EBFB08B172B6FEE7D4
:101340000F20CDE90A054FF48060CDE90C40022161
:101350000AA80E94FFF710FB002801D072B6FEE732
:101360000FB030BD7047FEE701460020FFF76ABAB4
:101370000907090E002804DB00F1E02080F80014C2
:10138000704700F00F0000F1E02080F8141D704756
:10139000FFF770FAFFF7B7FFFFF7C2FEFFF7F8FE9F
:1013A000FFF743FFFFF716FF00210CA20846FEF7E8
:1013B0008DFF0D4D4FF4FA74012210212846FFF7DE
:1013C000A3F82046FEF79EFF002210212846FFF7D3
:1013D0009BF82046FEF796FFEEE7000068656C6C10
:1013E0006F20776F726C64000008014000000000FD
:1013F00000000000002F000000000700070000149C
:101400007F147F1400242A7F2A12002313086462A9
:1014100000364955225000000503000000001C2240
:101420004100000041221C000014083E081400087E
:10143000083E0808000000A060000008080808082E
:10144000000060600000002010080402003E5149C6
:10145000453E0000427F4000004261514946002164
:1014600041454B31001814127F100027454545397E
:10147000003C4A49493000017109050300364949D9
:10148000493600064949291E000036360000000092
:1014900056360000000814224100001414141414DD
:1014A0000000412214080002015109060032495986
:1014B000513E007C1211127C007F49494936003EA2
:1014C00041414122007F4141221C007F494949415D
:1014D000007F09090901003E4149497A007F080857
:1014E000087F0000417F4100002040413F01007F14
:1014F00008142241007F40404040007F020C027FE0
:10150000007F0408107F003E4141413E007F0909F1
:101510000906003E4151215E007F09192946004617
:10152000494949310001017F0101003F4040403FEE
:10153000001F2040201F003F4038403F0063140838
:101540001463000708700807006151494543000013
:101550007F414100000204081020000041417F004B
:10156000000402010204004040404040000001022B
:101570000400002054545478007F48444438003814
:101580004444442000384444487F0038545454189C
:1015900000087E0901020018A4A4A47C007F0804AE
:1015A00004780000447D4000004080847D00007F7E
:1015B000102844000000417F4000007C041804789B
:1015C000007C0804047800384444443800FC242497
:1015D00024180018242418FC007C0804040800487F
:1015E0005454542000043F444020003C4040207CA0
:1015F000001C2040201C003C4030403C004428108F
:101600002844001CA0A0A07C004464544C4400006A
:10161000087F41000000007F00000000417F0800BB
:101620000010081810080000000000000000000072
:1016300000000000000000000000000000000000AA
:10164000000000000000000000000000000000009A
:10165000000000000000000000000000000000008A
:10166000000000000000000000000000000000007A
:1016700000000000000000000000C0F800000000B2
:10168000000000000000000000000000000000005A
:10169000000000000000000000000000000000004A
:1016A000000000000000000000000000000000003A
:1016B00000000000000000000000000000000080AA
:1016C000E0F08000000000000000000000000000CA
:1016D000000000000000000000000000000000000A
:1016E0000000000000C0F0C080000000000000000A
:1016F0000000000000000000C0F8FFFFFEE08000D6
:1017000000000000000000000000000000000000D9
:1017100000000000000000000000000000000000C9
:1017200000000000000000000000000000000000B9
:101730000000000000000000000000000202FFFFA7
:10174000FFFFFFFF0302E2E2E2C2C2C24242425A8C
:101750007E7E7A42424242C2E2E2E2C28202024219
:101760004242424347CFFFDFC7E3F2E2C0800000BE
:10177000E0E0E0C0C0C24247474FFFFFDF474743BA
:1017800042C0E0E0E0E0C0C0000000000000000057
:101790000000000000000000000000000000000049
:1017A0000000000000000000000000000000000039
:1017B0000000000000000000000000000000FFFF2B
:1017C000FFFFFFFF0000FFFFFFFFFF88080808087A
:1017D00008080808080000FFFFFFFFFF010000FEE7
:1017E000FEFEFE0000FFFFFFFF03F3F3F3F300F044
:1017F000FFFFFFFFFF1038387CFEFFFFFF7C38380B
:1018000010FFFFFFFFFFFF000000000000000000CE
:1018100000000000000000000000000000000000C8
:1018200000000000000000000000000000000000B8
:1018300000000000000000000000000080E0FFFF4A
:101840007F3F0FC1C0E0E3E3F3F3F161410101FF2A
:10185000FFFFFFFF01416173F3F3F3E3E0E0C0FF3B
:10186000FFFF3F0000FFFFFFFF001F1F0F03003FB0
:101870003F3F3F1F0F048484C4E4FFFFE5C484841A
:1018800004071F1F3F3F7F00000000000000000012
:101890000000000000000000000000000000000048
:1018A0000000000000000000000000000000000038
:1018B0000000000000000000000004060303010017
:1018C0000000010303050500000000000000007F88
:1018D0003F1F0F0700000000000000000507030382
:1018E00001000000007F3F1F070000000000000013
:1018F00000000000000103030F7FFFFFFF1F07032D
:1019000001010000000000000000000000000000D5
:1019100000000000000000000000000000000000C7
:1019200000000000000000000000000000000000B7
:1019300000000000000000000000000000000000A7
:101940000000000000000000000000000000000097
:101950000000000000000000000000000000000087
:101960000000000000000000000000000000000077
:10197000000000000000000000003FFF0300000026
:101980000000000000000000000000000000000057
:101990000000000000000000000000000000000047
:1019A0000000000000000000000000000000000037
:1019B0000000000000000000000000000000000027
:1019C0000000000000000000000000000000000017
:1019D0000000000000000000000000000000000007
:1019E00000000000000000000000000000000000F7
:1019F00000000000000000000000000700000000E0
:101A000000000000000000000000000000000000D6
:101A100000000000000000000000000000000000C6
:101A20000000000000000102020304050607080987
:101A30000A0B0C0D0E0F101000000000000000003B
:101A40000102030406070809000000000102030464
:101A5000701A000800000020100000002801000893
:101A6000801A000810000020B80600004401000899
:101A700001000000100000000000000000127A00C9
:04000005080000ED02
:00000001FF
