:020000040800F2
:100000004007002091010008231F0008911A0008F2
:10001000211F000885060008B52100080000000027
:100020000000000000000000000000001D2000088B
:1000300087060008000000001B200008452000087B
:10004000AB010008AB010008AB010008AB010008E0
:10005000AB010008AB010008AB010008AB010008D0
:10006000AB010008AB010008AB010008AB010008C0
:10007000AB010008AB010008AB010008AB010008B0
:10008000AB010008AB010008AB010008AB010008A0
:10009000AB010008AB010008AB010008AB01000890
:1000A000AB010008AB010008AB010008AB01000880
:1000B000AB010008AB010008AB010008AB01000870
:1000C000AB010008AB010008AB010008AB01000860
:1000D000AB010008AB010008AB010008AB01000850
:1000E000AB010008AB010008AB01000800F002F80A
:1000F00000F03FF80AA090E8000C82448344AAF183
:100100000107DA4501D100F034F8AFF2090EBAE880
:100110000F0013F0010F18BFFB1A43F0010318473B
:10012000B0270000D0270000103A24BF78C878C15B
:10013000FAD8520724BF30C830C144BF04680C60ED
:10014000704700000023002400250026103A28BF35
:1001500078C1FBD8520728BF30C148BF0B60704739
:10016000642900F04980002070471FB51FBD10B5FD
:1001700010BD00F0E7F91146FFF7F7FF02F036F87F
:1001800000F005FA03B4FFF7F2FF03BC00F008FA31
:100190000948804709480047FEE7FEE7FEE7FEE71B
:1001A000FEE7FEE7FEE7FEE7FEE7FEE70448054957
:1001B000054A064B70470000C1200008ED0000080A
:1001C00040010020400700204003002040030020A1
:1001D0000FB41CB5074B06AA7B44694600900598EE
:1001E00000F093F90020694600F0A2F91CBC5DF80C
:1001F00014FB0000550300002DE9F04106460024E1
:1002000010687529314616A510D0AFF3008000287C
:1002100002DA404213A507E031688A0701D512A52A
:1002200002E0490704D511A5012401E0AFF30080E5
:1002300000210A2206F1240709E0B0FBF2FCB0FB22
:10024000F2F302FB1C00303078541846491C002899
:10025000F3D123462A463046BDE8F04100F0F6B817
:10026000000000002D0000002B0000002000000016
:100270002DE9F05F894604464FF0000ADFF874B1BB
:10028000FB44C0F820A02046E1688847002874D0CD
:10029000252806D0D4E901219047206A401C20621D
:1002A000F1E700265F462046E1688847202805469A
:1002B00007DB312D05D2781910F8200C08B1064360
:1002C000F1E7B00701D526F00406C4F81CA000270A
:1002D000C4F818A02A2D09D0284601F080FF38B3B1
:1002E00004EB8708303DC8F8185019E059F8041B92
:1002F000204604EB87029161E1688847012F05469B
:1003000018D1E069002820DA26F020061DE0D8F890
:10031000180000EB800005EB40003038C8F81800EA
:100320002046E1688847054601F059FF0028EED1D4
:10033000012F0AD02E2D08D12046E16888477F1C66
:100340000546022F46F02006C4DBA069002803DA28
:10035000404246F00106A061F00701D026F01006E9
:100360006C2D0BD0682D09D04C2D39D06A2D35D08D
:10037000742D35D07A2D33D016E038E0E1682F4661
:1003800020468847B842054609D16C2F26D04FF445
:100390008060E168064320468847054604E06C2FEC
:1003A0001AD04FF4807006430DB3A5F1410019280F
:1003B00002D8203546F400664A4629462046266083
:1003C0004E46FFF7CDFE80B101280BD0F61D26F07A
:1003D000070000F1080956E74020E4E78020D8E74D
:1003E0000020D6E706F104094DE7284652E7206AC7
:1003F000BDE8F09F3A2600004FF0000200B513461A
:1004000094469646203922BFA0E80C50A0E80C5034
:10041000B1F12001BFF4F7AF090728BFA0E80C50E5
:1004200048BF0CC05DF804EB890028BF40F8042BDE
:1004300008BF704748BF20F8022B11F0804F18BF4B
:1004400000F8012B70477047704770472DE9F0475F
:100450000D4699469246044600F124080168880634
:1004600004D5E06921F01001216000E00120A842DC
:1004700001DD471B00E00027A1697A1902EB0900A2
:10048000081AA0612078C00602D42046AFF300808D
:10049000002608E0D4E901211AF806009047206AF6
:1004A000401C761C20624E45F4DB2078C0060AD53D
:1004B0002046AFF3008006E0D4E9012130209047C8
:1004C000206A401C2062381EA7F10107F4DC07E017
:1004D000D4E9012118F805009047206A401C2062E9
:1004E000281EA5F10105F3DC2046AFF3008020783B
:1004F000000602D50220BDE8F0870120FBE70000DE
:1005000001694A1C02610878704700B58FB0CDE9D7
:1005100001310021059105497944CDE903101146C7
:100520006846FFF7A5FE0FB000BD0000E5FFFFFF26
:100530000A6802F8010B0A60704700000048704723
:10054000DC0000207546FFF7F9FFAE46050069465E
:10055000534620F00700854618B020B5FFF726FE69
:10056000BDE820404FF000064FF000074FF00008B4
:100570004FF0000B21F00701AC46ACE8C009ACE835
:10058000C009ACE8C009ACE8C0098D46704710B599
:100590000446AFF300802046BDE81040FFF7F2BDEF
:1005A00001491820ABBEFEE726000200704700009C
:1005B00070B5044600688168C943C90717D18168CE
:1005C00021F00101816000F007FC05460AE000BF50
:1005D00000F002FC401B022804D920688068C04358
:1005E000C00706D020688068C043C007F0D0002054
:1005F00070BDA06A40F01000A062E06A40F0010007
:10060000E062012070BD0000F8B5002604460096A7
:1006100000688168C943C9072DD0816841F0010194
:100620008160164816490068B0FBF1F000E0401EFA
:1006300000900028FBD100F0CFFB054616E000BF7C
:1006400000F0CAFB401B022810D920688068C04314
:10065000C0070BD0A06A40F01000A062E06A40F032
:100660000100E06284F824600120F8BD2068806801
:10067000C043C007E4D10020F8BD00000C000020FA
:1006800040420F00FEE7704770B500EB40004006A7
:100690001546000E01F0C3FC084905EB4500002497
:1006A00001EB4005281910F8C01C402000F02CFD7B
:1006B000641CE4B2062CF5D370BD0000482200088B
:1006C0003EB50C46054605A16846FFF781FD6A4622
:1006D0002146284600F004F83EBD000025640000D5
:1006E0002DE9F04117460E46044600250CE0314640
:1006F0002046FFF7C9FF641C6D1CE4B2EDB2152C57
:1007000002D3761CF6B200247A5D002AEFD1BDE850
:10071000F08172B6FEE70000F8B50024009490F86E
:1007200024202546012A12D0012280F824204A687C
:100730001F23072A0DD20668776B521E02EB820236
:1007400093409F430B6893401F43776319E0022057
:10075000F8BD06680D2A0AD2376BD21F02EB82025F
:1007600093409F430B6893401F43376309E0F76A48
:100770000D3A02EB820293409F430B6893401F4364
:10078000F7620A68072306680A2A0AD3F7680A3A52
:1007900002EB420293409F438B6893401F43F760F4
:1007A00008E0376902EB420293409F438B68934015
:1007B0001F4337610A68102A01D0112A20D1124B39
:1007C00002689A4217D193681B0219D4936843F4C4
:1007D000000393600968102912D10C490C4A09687A
:1007E000B1FBF2F101EB8101490000E0491E0091EB
:1007F0000029FBD104E0816A41F0200181620124DB
:1008000080F824502046F8BD002401400C00002050
:1008100040420F000068C06C704700002DE9F041B5
:100820004FF0000704003D467ED0A06A002628B99C
:10083000E66284F82460204600F07EF82046FFF748
:10084000B7FEA16AC90600D420B1A06A40F010002A
:10085000A06269E0A16A21F4885141F00201A1621D
:100860006268E169237B0A4347EA43010A43A168BE
:100870004FF48077B94209D0012907D05FF0000119
:1008800094F814C0BCF1010F02D00AE03946F7E732
:10089000F3B1A36A43F02003A362E36A43F00103C8
:1008A000E3622368D3F804C02CF4694C4CEA010CD1
:1008B000C3F804C021688B68DFF870C003EA0C033A
:1008C00013438B60A168B9420BD0012909D00CE019
:1008D000DFF85CC0A3690CEB43330B4343F40061C6
:1008E000DFE7218A0D05A5F580152168CB6A23F481
:1008F00070032B43CB62216889680E4B19409142EB
:1009000008D1E662A16A21F0020141F00101A16271
:10091000BDE8F081A06A20F0020040F01000A06263
:10092000E06A40F00100E0620120F1E7FDF7E1FF3D
:1009300000E0FFFFFE0E1FFF00B585B00021009113
:1009400001910291039100680E49884218D10E4826
:10095000816941F400718161816901F40071049140
:10096000816941F0040181618069694600F00400F9
:1009700004900820009003200190044800F032F910
:1009800005B000BD002401400010024000080140F5
:100990002DE9F84300270D460446009700F01CFAA5
:1009A000804620688168C90508D5A06A40F020000B
:1009B000A06284F824700120BDE8F8834168C9056D
:1009C00003D4C06A10F4700F2AD0022000F036FC65
:1009D0003B490968B1FBF0F62068036939490B42CD
:1009E0004FEA61014FEAA1121FD1C3684FEA611CAF
:1009F00013EA0C0F19D103690B4225D1C0681042CC
:100A000022D1142023E0681C0AD02DB100F0E4F9B3
:100A1000A0EB0800A84203D920680068800725D50C
:100A2000206800688007EED52DE003690B4202D1F3
:100A3000C168114206D0026923490A4206D1C06842
:100A4000084203D1542002E0292000E0FC20464364
:100A5000009816E0681C11D02DB100F0BDF9A0EB94
:100A60000800A8420AD90098B04207D2A06A40F014
:100A70000400A06284F8247003209DE70098401CC5
:100A80000090B042E6D321686FF012000860A06ABF
:100A900040F40070A06220688068C0F342400728DC
:100AA0000CD1207B50B9A06A20F48070A062A06AAB
:100AB000C00403D4A06A40F00100A06200207BE7DC
:100AC0000C000020244992244992240070B5044669
:100AD00090F8240001280DD0012084F8240020463D
:100AE000FFF792FD02004FF0000005D084F82400CB
:100AF000104670BD022070BDA16A40F201239943E7
:100B000041F48071A1621F4D23681F49AB4218D187
:100B10000E6816F4702F14D0A66A46F48016A662EA
:100B20000E68760505D5A66A26F4005646F480566A
:100B3000A662A66AF6040AD5E66A26F00606E6620A
:100B400006E0A66A26F48016A6625E68E9E7E0621F
:100B500084F824006FF00200186020688368C3F3F3
:100B60004243072B05D1A84208D1096811F4702F20
:100B700004D0816841F480118160B9E7816841F453
:100B8000A001F9E7002801400424014010B5044603
:100B900090F82400012807D0012084F82400204682
:100BA000FFF706FD10B107E0022010BDA16A21F495
:100BB000885141F00101A162002184F8241010BD88
:100BC00070B5044600F008F90546601C02D00448E0
:100BD0000078044400F000F9401BA042FAD370BD35
:100BE000000000202DE9F84FDFF8B8910024A9F1AA
:100BF000040B23460F2709F1040AABF1040EC9E0E8
:100C00000125A5402A40AA427DD1674ED1F804C0F3
:100C1000ACEB0608B44532D014DCBCF1030F3AD07B
:100C200009DCBCF1000F2AD0BCF1010F1CD0BCF1D3
:100C3000020F31D11DE0BCF1110F17D0BCF1120F22
:100C40002AD119E0B8F5881F19D006DCB8F5803F25
:100C500015D0B8F5801F1FD111E0B8F5001F0ED0D8
:100C6000B8F5041F18D10AE0CB6815E0CB681B1D4E
:100C700012E0CB6808330FE0CB680C330CE08B68D4
:100C80002BB1012B4FF0080303D0456104E004238E
:100C900002E0056100E00023FF2A01D8064601E0DA
:100CA00000F104064FEA840501D9A5F12005D6F824
:100CB000008007FA05FC28EA0C0803FA05F548EA63
:100CC0000508C6F800804D68ED0062D5374DAE6965
:100CD00046F00106AE61AD6924F0030605F001059A
:100CE0000095334D06EB050CDCF80850A607360FCF
:100CF00007FA06F825EA0805DFF8B880404503D171
:100D00004FF0000817E044E0DFF8AC80404502D126
:100D10004FF001080FE0DFF8A480404502D14FF00A
:100D2000020808E0DFF89880404502D14FF0030840
:100D300001E04FF0040808FA06F848EA0508CCF884
:100D400008804D68D9F80060ED024D4601D5164384
:100D500000E096432E604D68DAF80060AD0255461B
:100D600001D5164300E096432E604D68DBF8006025
:100D7000AD035D4601D5164300E096432E604D68F5
:100D8000DEF80060ED03754601D5164300E096439A
:100D90002E60641C0D682A46E5407FF431AFBDE843
:100DA000F88F0000080401400000111000100240FC
:100DB0000000014000080140000C0140001001400B
:100DC000001401408068084000D0012070470AB13B
:100DD000016170470904FBE7014880687047000023
:100DE0000000002070B5040025D094F83D000025D7
:100DF00020B984F83C50204600F04EF9242084F8B5
:100E00003D002068016821F001010160206801684F
:100E100041F4004101602068016821F40041016053
:100E200000F06AFB4D4A6168914201D84C4900E0EC
:100E30004C49884201D2012070BD4B492368B0FB68
:100E4000F1F15E6826F03F060E435E6063689342F0
:100E500006D94FF4967359434FF47A73B1FBF3F10B
:100E60002368491C1E6A26F03F06314319626168F7
:100E7000914210D84900401EB0FBF1F2521CC2F35F
:100E80000B02042A01D2042022E0B0FBF1F0401C46
:100E9000C0F30B001CE0A268F2B301EBC10303EB4B
:100EA0000116431EB3FBF6F35B1C43F480431B05A2
:100EB00049D092B301EBC10202EB0111401EB0FB1D
:100EC000F1F0401CC0F30B0040F4804040F40040BF
:100ED0002168CA694CF6FF739A431043C861D4E98C
:100EE000071001432068026822F0C002114301602C
:100EF000D4E9030101432068826848F2FF339A4332
:100F000011438160D4E9050108432168CA6822F0D1
:100F1000FF021043C86001E00EE016E0206801689F
:100F200041F0010101602564202084F83D00256323
:100F300084F83E50002070BD01EB4106431EB3FB18
:100F4000F6F35B1CB3E70120C2E701EB4101401E51
:100F5000B0FBF1F0401CC0F30B00B7E7A086010026
:100F600080841E0000093D0040420F002DE9F84F2B
:100F70001F4690468A460446DDF82890FFF72CFF6E
:100F8000054694F83D0020287FD1192301224049CD
:100F90002046009500F00EFE002876D194F83C0023
:100FA000012872D0012084F83C0020680168C9073C
:100FB00003D1016841F0010101602068016821F45A
:100FC00000610160212084F83D00102084F83E007B
:100FD00000262664C4F824806785608D20852D480E
:100FE000E0622B464A465146204600F069FD90B922
:100FF000206841698069009036E02A4649462046CB
:1010000000F07EFE50B1206C042804D120680168F5
:1010100041F4007101600120BDE8F88F606A216829
:1010200000780861606A401C6062618D491E6185BC
:10103000218D491E89B2218522685369DB435B07F4
:101040000BD451B100781061606A401C6062608D01
:10105000401E6085208D401E20852A464946204638
:1010600000F07CFD0028CED1208D0028C5D154F899
:101070003D0B016841F400710160202004F81E0955
:10108000E67766770020C7E7FFE70220C4E70000A5
:10109000020010000000FFFF10B586B00021009193
:1010A00001910291039100681349884222D1134CA7
:1010B000A06940F00800A061A069694600F008003E
:1010C00004904FF440700090122001900320039090
:1010D0000B48FFF787FD0B48416841F0E06141F0A4
:1010E00002014160E06940F40010E061E06900F451
:1010F0000010049006B010BD0054004000100240E3
:10110000000C0140000001401CB502238DF80400D2
:101110000A208DF80510009001AA78210148FFF7F8
:1011200025FF1CBD40000020024881680278114460
:101130008160704700000020074810B5016841F049
:1011400010010160032000F067F80F2000F006F89E
:1011500000F024F8002010BD0020024070B50D4DB5
:1011600004464FF47A712878B1FBF0F00A49096817
:10117000B1FBF0F000F096FB48B9102C07D200222A
:101180002146501E00F028F800206C6070BD012040
:1011900070BD0000000000200C0000200C4808B5C5
:1011A000816941F001018161816901F001010091D2
:1011B000C16941F08051C161C06900F08050009068
:1011C0000448416821F0E06141F00071416008BDD0
:1011D0000010024000000140F0B40E4B1B680C46AA
:1011E000C3F30223C3F10705042D00D90425191DFB
:1011F000072901D2002300E0DB1E012606FA05F1D3
:10120000491E214099409E40761E16403143F0BC55
:1012100000F0D5BF0CED00E0064900F007020868B9
:101220004FF6FF03184040EA0220034A10430860CB
:10123000704700000CED00E00000FA0510B5014613
:101240000020234C012922D0022939D010291DD198
:1012500061682268D20119D51E48C1F38342C903CF
:10126000805C0AD561681B4AC1F34041921E515C03
:10127000194AB2FBF1F1484301E01849484361685B
:10128000490203D440000321B0FBF1F010BD226AF3
:10129000C2F30121012903D1920701D5C80310BD72
:1012A000022905D1626A920702D549F6404010BD75
:1012B0000329FCD121688903F9D54FF2244010BDE0
:1012C00000F02AF96168C1F38131491C4900DBE76C
:1012D000001002409628000800127A0000093D0024
:1012E0002DE9F84305460078354CC00754D0E06935
:1012F0000026C00008D4E06940F08050E061E06959
:10130000012600F0805000902E480168C90512D4D3
:101310000168804641F480710160FFF75DFD07467A
:1013200005E000BFFFF758FDC01B642823D8D8F89C
:101330000000C005F6D5206A10F4407021D0A988BD
:1013400001F4407181421CD0206A1F49012220F41F
:1013500040700A6000220A602062C00711D0FFF7C7
:101360003BFD074641F2883808E000BFFFF734FD37
:10137000C11B414502D90320BDE8F883206A8007DC
:10138000F4D5206A696820F44070084320621EB1D9
:10139000E06920F08050E0612878800705D560681A
:1013A000A96820F44040084360602878C00605D54D
:1013B0006068E96820F48000084360600020DBE793
:1013C0000010024000700040400442422DE9F04706
:1013D0000F46050061D0434E306800F00700B84268
:1013E00009D2306820F0070038433060306800F0E0
:1013F0000700B84251D128683B4C810712D54007FD
:1014000003D5606840F4E06060602878000703D589
:10141000606840F4605060606068A96820F0F00087
:10142000084360602878C00728D06868012810D079
:101430002168022810D0890700292EDA616821F07E
:10144000030101436160FFF7C7FC804641F2883920
:101450000DE021688903EFE78901EDE7FFF7BCFCA8
:10146000A0EB0801494502D90320BDE8F087606878
:10147000696800F00C00B0EB810FEFD1306800F02C
:101480000700B8420BD9306820F0070038433060BD
:10149000306800F00700B84201D00120E5E7287865
:1014A000400705D56068E96820F4E06008436060A3
:1014B0002878000706D56068296920F4605040EA62
:1014C000C100606000F038F86168084AC1F3031198
:1014D000515CC8400649086006480068FFF73EFEB8
:1014E0000020C2E70020024000100240A6280008A9
:1014F0000C000020040000200448054900684968E9
:10150000044AC1F30221515CC84070470C0000201E
:1015100000100240B62800080448054900684968E0
:10152000044AC1F3C221515CC84070470C0000203E
:1015300000100240B62800080E4A51680E4801F01B
:101540000C03042B11D0082B0FD10C48C1F383439B
:10155000C903C05C0AD55168084AC1F34041921ED4
:10156000515C054A5043B0FBF1F0704704494843D1
:10157000704700000010024000127A008428000822
:1015800000093D002DE9F84F040070D02078C04DCF
:10159000C00749D06868C0F38100012807D0686897
:1015A000C0F38100022809D16868C00306D5286805
:1015B000800339D560680028E7D035E06068B0F571
:1015C000803F0BD010B1B0F5A02F11D0286820F4C7
:1015D00080302860286820F4802002E0286840F4E9
:1015E00080302860606890B1FFF7F6FB06460AE09D
:1015F000286840F480202860F0E700BFFFF7ECFB8C
:10160000801B642873D828688003F7D50CE0FFF7A7
:10161000E3FB064605E000BFFFF7DEFB801B642806
:10162000F0D828688003F7D420789A4E80074FF0CE
:1016300001094FF0000839D5686810F00C0F07D089
:101640006868C0F38100022809D16868C00306D425
:101650002868800714D52069012808D110E0206986
:10166000B0B1C6F80090FFF7B7FB074605E00AE106
:10167000FFF7B2FBC01B0228C4D828688007F7D543
:101680002868616920F0F80040EAC10028600DE098
:10169000C6F80080FFF7A0FB074604E0FFF79CFBBD
:1016A000C01B022823D828688007F7D420780007B9
:1016B0002CD57948A169D9B1C0F80090FFF78CFB0F
:1016C000074604E0FFF788FBC01B02280FD8686AB2
:1016D0008007F7D571484FF4FA510068B0FBF1F07C
:1016E000009000BF0098411E0091FAD20EE080E009
:1016F000C0F80080FFF770FB074604E0FFF76CFBC3
:10170000C01B022875D8686A8007F7D42078400784
:1017100060D5E8690027C00008D4E86940F080502F
:10172000E861E869012700F0805000905C4801689A
:10173000C90513D40168834641F480710160FFF745
:101740004BFB824606E000BFFFF746FBA0EB0A001A
:1017500064284ED8DBF80000C005F5D5E068012804
:101760000AD008B1052813D0286A20F001002862A9
:10177000286A20F0040002E0286A40F00100286294
:10178000E06841F2883B98B1FFF726FB82460BE008
:10179000286A40F004002862EEE700BFFFF71CFB58
:1017A000A0EB0A0159455AD8286A8007F6D50CE003
:1017B000FFF712FB824605E0FFF70EFBA0EB0A01E4
:1017C00059454CD8286A8007F6D41FB1E86920F043
:1017D0008050E861E06988B36968C1F3810102293A
:1017E00044D00228C6F8608004D0FFF7F5FA04461A
:1017F00038E034E0FFF7F0FA074604E0FFF7ECFAD0
:10180000C01B02282BD828688001F7D4206AB0F5C5
:10181000803F05D16868A16820F400300843686003
:10182000D4E908010843696821F474110843686029
:10183000C6F86090FFF7D0FA044606E025E000BF46
:10184000FFF7CAFA001B022809D828688001F7D5DB
:101850001BE000BFFFF7C0FA001B022802D90320DB
:10186000BDE8F88F28688001F4D40EE00128F7D095
:101870006868226A00F48031914204D1616A00F400
:101880007010884201D00120EAE70020E8E700005C
:101890000010024000004242800442420C0000203E
:1018A0000070004010B5401EB0F1807F01D30120D0
:1018B00010BD4FF0E02460610F21601700F07FFC45
:1018C0000020A06107202061002010BD70B590F8B5
:1018D0003C20012A26D0012480F83C40022280F8D6
:1018E0003D2003685A689D6822F070060A683243FA
:1018F0005A600D4B02689A4208D0B2F1804F05D071
:101900000A4B9A4202D00A4B9A4204D1496825F008
:1019100080031943916080F83D40002180F83C101D
:10192000084670BD022070BD002C0140000400403C
:101930000008004010B5040003D094F83D0010B139
:1019400007E0012010BD002084F83C00204600F094
:101950001FF8022084F83D00211D206800F0B2FB32
:10196000012084F8460084F83E0084F83F0084F8A3
:10197000400084F8410084F8420084F8430084F871
:10198000440084F8450084F83D00002010BD0000AC
:1019900008B50068B0F1804F08D10548C16941F031
:1019A0000101C161C06900F00100009008BD0000A4
:1019B0000010024070B5044690F83C000025012854
:1019C00017D0012684F83C60022084F83D0020688E
:1019D000826822F0770222F47F42826008685028F1
:1019E00038D00DDC20284FD005DC90B3102811D161
:1019F0004AE0022070BD302846D040280AD13BE0A2
:101A000060282FD070280DD0B0F5805F03D0B0F5DE
:101A1000005F12D0012584F83D60002084F83C006E
:101A2000284670BDCB68D1E90121206800F086FB13
:101A30002068816841F0770109E0CB68D1E9012194
:101A4000206800F07BFB2068816841F48041816060
:101A5000E1E719E0CA684968206800F081FB50217D
:101A6000206806E0CA684968206800F08AFB6021A7
:101A7000206800F06DFBCEE7CA684968206800F076
:101A80006FFB40212068F4E7226801461046F0E72A
:101A9000FEE701684A69D24352050FD46FF48062B1
:101AA0004A61002140F8301F20224273817302698D
:101AB00042F0040202610173012070470020704768
:101AC000F8B50446C06A1E460D461746082807D0DA
:101AD000012805D010F5803F02D0206B122804D1D8
:101AE0002068016841F480710160134600224FF0C4
:101AF00001112046009600F05DF840B120680068B2
:101B0000C00502D54FF4007020640320F8BD2069A1
:101B1000B0F5804F0ED00620216800EAD51040F0C5
:101B2000F000086133463A460B49204600F08AF837
:101B300078B902E005F0FE0000E0E8B22168086133
:101B4000054933463A46891F204600F07BF80028B5
:101B5000DCD00120F8BD00000800010070B5164679
:101B60000D4604461EE02046FFF793FF08B1012012
:101B700070BD681C16D0FFF72FF9801BA84200D853
:101B800085B920684069C04340070BD5002044F860
:101B9000300F20216173A073216941F02001216180
:101BA0002073E4E720684069C0434007DBD400208D
:101BB00070BD00002DE9F047984617460D460446D3
:101BC000C1F30746DDF820902AE000BFB8F1FF3FDF
:101BD00026D0FFF701F9A0EB0901414502D8B8F181
:101BE000000F1DD12068012E16D0806925EA000063
:101BF0000004000C12D00020B84211D1002044F89B
:101C0000300F20216173A073216941F0200121610F
:101C100020730120BDE8F0874069E7E70120EBE78A
:101C20002068012E0AD0806925EA00000004000C1B
:101C300006D00020B842C9D00020EBE74069F3E7A6
:101C40000120F7E72DE9F047984616460D46044671
:101C50004FF000094FF0200AC1F3074723E0206846
:101C60004069C043400515D42068016841F4007103
:101C7000016021686FF480604861C4F8309084F896
:101C80003DA084F83E90216C41F00401216484F869
:101C90003C9021E0701C06D0FFF79EF8A0EB0800F6
:101CA000B04203D816B1012F1FD021E02068012FC8
:101CB00015D0806925EA00000004000C18D000BF90
:101CC00044F8309F84F80DA084F80E90216941F00B
:101CD0002001216184F80C900120BDE8F087406963
:101CE00025EA00000004000CEAD12068406901E008
:101CF0002068806925EA00000004000CAFD1ECE701
:101D000070B516460D4604461EE02046FFF7C1FE9C
:101D100008B1012070BD681C16D0FFF75DF8801B6C
:101D2000A84200D885B920684069C04300060BD599
:101D3000002044F8300F20216173A073216941F025
:101D4000200121612073E4E720684069C043000658
:101D5000DBD4002070BD000010B50848FEF7B6FEC9
:101D60004FF0FF310548FEF713FE0448FEF752FD21
:101D700084B20248FEF70AFF204610BD1000002082
:101D80003EB5002411480094019402940E498460E9
:101D9000016004730475012505614FF460214460FE
:101DA000C161FEF73BFD08B1FEF7B3FC0320CDE9AE
:101DB0000005694602940548FEF7AEFC002801D0F4
:101DC000FEF7A7FC3EBD00000024014010000020EB
:101DD0002DE9F04385B00024254800940194029435
:101DE0000394816941F020018161816901F0200142
:101DF0000491816941F004018161816901F004016C
:101E00000491816941F0080181618069DFF8648093
:101E100000F008000490002205214046FEF7D7FF9D
:101E2000DFF854904FF48057002239464846FEF7B9
:101E3000CEFF052001250226CDE90005CDE90246A9
:101E400069464046FEF7CEFE3220CDE900046946E1
:101E500040460294FEF7C6FE00970396CDE9015472
:101E600069464846FEF7BEFE05B0BDE8F0830000B7
:101E70000010024000080140000C01400D4810B560
:101E80000B4901600C49416000214FF480428160A0
:101E9000C0E9031241618161C1610162FEF7A2FFE5
:101EA000002803D0BDE81040FEF733BC10BD000091
:101EB0000054004040000020A086010010B586B00C
:101EC00000241648009401940294039404944FF063
:101ED0008041059401604721C0E901144FF6FF716C
:101EE000C0E903148461FFF725FD08B1FEF711FC7A
:101EF0004FF48050009069460848FFF75BFD08B139
:101F0000FEF707FC049404A904480594FFF7DEFCDF
:101F1000002801D0FEF7FDFB06B010BD94000020A4
:101F2000FEE7FEE70020AFF3008070B50646002410
:101F30002146002000F073F8002531464020FFF7CD
:101F4000E3F86D1CEDB2802DF7D3641CE4B2082CCD
:101F5000EED370BD10B5AE2000F02DF9202000F0BA
:101F60002AF9102000F027F9B02000F024F9C82049
:101F700000F021F9022000F01EF9102000F01BF9FA
:101F8000402000F018F9812000F015F9FF2000F042
:101F900012F9A12000F00FF9A62000F00CF9A820FA
:101FA00000F009F93F2000F006F9A42000F003F941
:101FB000D32000F000F9002000F0FDF8D52000F05B
:101FC000FAF8F02000F0F7F8D92000F0F4F8222019
:101FD00000F0F1F8DA2000F0EEF8122000F0EBF853
:101FE000DB2000F0E8F8202000F0E5F88D2000F07C
:101FF000E2F8142000F0DFF8BDE81040AF2000F058
:10200000DAB810B58D2000F0D6F8142000F0D3F81F
:10201000BDE81040AF2000F0CEB87047704710B553
:102020000446B031C8B200F0C6F8A41CE4B21020D7
:1020300040EA141000F0BFF804F00F00BDE81040B3
:1020400000F0B9B8FFF770B830B593B028216846F2
:10205000FEF7D2F914210AA8FEF7CEF900250120D7
:102060000F9510951195010412958DE823000490A9
:102070004FF4E010CDE90810022407946846FFF7FA
:1020800081FA08B172B6FEE70AA90F2081E8310093
:102090004FF48060CDE90D0502210AA8FFF796F9FB
:1020A00008B172B6FEE74FF4004011900F940FA8EC
:1020B000FFF716F9002801D072B6FEE713B030BD65
:1020C00070470000F0B50268194B1A4C1A4D4FF0DA
:1020D0008047984205D0B84203D0A04201D0A84220
:1020E00003D122F070064A683243984205D0B842C4
:1020F00003D0A04201D0A84203D122F44074CA68A0
:1021000022434C6922F08002224302608A68C26244
:102110000A688262984201D1096901630121416123
:102120000169C90703D0016921F001010161F0BD16
:10213000002C0140000400400008004010B58468F5
:1021400042EA032224F47F440A432243826010BD02
:10215000826822F070020A4342F0070181607047F2
:1021600010B5036A046A24F001040462846924F04F
:10217000F00444EA021423F00A020A438461026272
:1021800010BD10B5036A046A24F010040462846967
:1021900023F0A00324F4704444EA023243EA01111C
:1021A0008261016210BD000020210148FEF70ABED5
:1021B00000080140FEE701460020FEF7A5BF090721
:1021C000090E002804DB00F1E02080F800147047BD
:1021D00000F00F0000F1E02080F8141D7047303847
:1021E0000A2801D20120704700207047FEF7A4FFA3
:1021F000FFF72AFFFFF7ECFDFFF740FEFFF75EFE5B
:10220000FFF7BEFDFFF7A6FEFFF7FBFEFFF78AFE16
:102210000C4E4FF47A744FF480552046FEF7D0FCF4
:10222000FFF79AFD024600210846FEF749FAFFF73C
:10223000BBFF08B1012200E0002229463046FEF72C
:10224000C6FDEAE7000C01400000000000000000AD
:10225000002F000000000700070000147F147F1407
:1022600000242A7F2A12002313086462003649558D
:10227000225000000503000000001C224100000065
:1022800041221C000014083E08140008083E0808FB
:10229000000000A060000008080808080000606056
:1022A0000000002010080402003E5149453E000095
:1022B000427F4000004261514946002141454B3177
:1022C000001814127F10002745454539003C4A4943
:1022D00049300001710905030036494949360006B5
:1022E0004949291E0000363600000000563600001D
:1022F0000008142241000014141414140000412298
:10230000140800020151090600324959513E007C6F
:102310001211127C007F49494936003E4141412259
:10232000007F4141221C007F49494941007F090942
:102330000901003E4149497A007F0808087F0000F2
:10234000417F4100002040413F01007F08142241AD
:10235000007F40404040007F020C027F007F040865
:10236000107F003E4141413E007F09090906003EC1
:102370004151215E007F09192946004649494931EA
:102380000001017F0101003F4040403F001F20400D
:10239000201F003F4038403F0063140814630007CB
:1023A0000870080700615149454300007F41410022
:1023B000000204081020000041417F0000040201D7
:1023C00002040040404040400000010204000020A0
:1023D00054545478007F48444438003844444420DE
:1023E00000384444487F00385454541800087E098B
:1023F00001020018A4A4A47C007F08040478000053
:10240000447D4000004080847D00007F102844000F
:102410000000417F4000007C04180478007C080420
:10242000047800384444443800FC2424241800185C
:10243000242418FC007C0804040800485454542048
:1024400000043F444020003C4040207C001C2040D1
:10245000201C003C4030403C004428102844001C14
:10246000A0A0A07C004464544C440000087F4100BC
:102470000000007F00000000417F080000100818E5
:102480001008000000000000000000000000000034
:10249000000000000000000000000000000000003C
:1024A000000000000000000000000000000000002C
:1024B000000000000000000000000000000000001C
:1024C000000000000000000000000000000000000C
:1024D000000000000000C0F8000000000000000044
:1024E00000000000000000000000000000000000EC
:1024F00000000000000000000000000000000000DC
:1025000000000000000000000000000000000000CB
:10251000000000000000000000000080E0F08000EB
:1025200000000000000000000000000000000000AB
:10253000000000000000000000000000000000009B
:1025400000C0F0C08000000000000000000000009B
:1025500000000000C0F8FFFFFEE080000000000067
:10256000000000000000000000000000000000006B
:10257000000000000000000000000000000000005B
:10258000000000000000000000000000000000004B
:1025900000000000000000000202FFFFFFFFFFFF3D
:1025A0000302E2E2E2C2C2C24242425A7E7E7A4262
:1025B000424242C2E2E2E2C282020242424242435A
:1025C00047CFFFDFC7E3F2E2C0800000E0E0E0C0F9
:1025D000C0C24247474FFFFFDF47474342C0E0E0EA
:1025E000E0E0C0C0000000000000000000000000AB
:1025F00000000000000000000000000000000000DB
:1026000000000000000000000000000000000000CA
:1026100000000000000000000000FFFFFFFFFFFFC0
:102620000000FFFFFFFFFF880808080808080808E7
:10263000080000FFFFFFFFFF010000FEFEFEFE009E
:1026400000FFFFFFFF03F3F3F3F300F0FFFFFFFFD3
:10265000FF1038387CFEFFFFFF7C383810FFFFFF8B
:10266000FFFFFF000000000000000000000000006D
:10267000000000000000000000000000000000005A
:10268000000000000000000000000000000000004A
:10269000000000000000000080E0FFFF7F3F0FC14E
:1026A000C0E0E3E3F3F3F161410101FFFFFFFFFF4E
:1026B00001416173F3F3F3E3E0E0C0FFFFFF3F008C
:1026C00000FFFFFFFF001F1F0F03003F3F3F3F1FA3
:1026D0000F048484C4E4FFFFE5C4848404071F1F3F
:1026E0003F3F7F00000000000000000000000000ED
:1026F00000000000000000000000000000000000DA
:1027000000000000000000000000000000000000C9
:1027100000000000000004060303010000000103A4
:1027200003050500000000000000007F3F1F0F07A9
:102730000000000000000000050703030100000086
:10274000007F3F1F070000000000000000000000A5
:10275000000103030F7FFFFFFF1F070301010000BC
:102760000000000000000000000000000000000069
:102770000000000000000000000000000000000059
:102780000000000000000000000000000000000049
:102790000000000000000000000000000000000039
:1027A0000000000000000000000000000000000029
:1027B0000000000000000000000000000000000019
:1027C0000000000000000000000000000000000009
:1027D0000000000000003FFF0300000000000000B8
:1027E00000000000000000000000000000000000E9
:1027F00000000000000000000000000000000000D9
:1028000000000000000000000000000000000000C8
:1028100000000000000000000000000000000000B8
:1028200000000000000000000000000000000000A8
:102830000000000000000000000000000000000098
:102840000000000000000000000000000000000088
:102850000000000000000007000000000000000071
:102860000000000000000000000000000000000068
:102870000000000000000000000000000000000058
:102880000000010202030405060708090A0B0C0DEB
:102890000E0F1010010202030405060708090A0BB7
:1028A0000C0D0E0F101000000000000000000102CF
:1028B00003040607080900000000010203040400E5
:1028C00000080000000000000002000100001000ED
:1028D000F028000800000020100000002801000877
:1028E0000029000810000020300700004401000803
:1028F00001000000100000000000000000127A003B
:04000005080000ED02
:00000001FF
